:020000040800F2
:1000000000500020C51F000815200008152000081A
:100010001520000815200008152000080000000029
:100020000000000000000000000000001520000893
:100030001520000800000000152000081520000809
:1000400015200008152000081520000815200008BC
:1000500015200008152000081520000815200008AC
:100060001520000815200008B1140008152000080C
:10007000152000081520000815200008152000088C
:10008000152000081520000815200008152000087C
:10009000152000081520000815200008152000086C
:1000A000152000081520000815200008152000085C
:1000B000152000081520000815200008152000084C
:1000C00015200008C51E000815200008152000088E
:1000D0001520000815200008B11E00081520000892
:1000E0001520000815200008000000001520000859
:1000F000152000081520000815200008152000080C
:1001000015200008152000081520000815200008FB
:1001100015200008152000081520000815200008EB
:1001200015200008152000081520000815200008DB
:1001300010B5054C237833B9044B13B10448AFF321
:1001400000800123237010BDF80000200000000093
:100150006029000808B5034B1BB103490348AFF3FE
:10016000008008BD00000000FC000020602900089D
:100170004FF0FF0C1CEAD0521EBF1CEAD15392EA8A
:100180000C0F93EA0C0F6FD01A4480EA010C400266
:1001900018BF5FEA41211ED04FF0006343EA5010C0
:1001A00043EA5111A0FB01310CF00040B1F5000F02
:1001B0003EBF490041EAD3715B0040EA010062F1B1
:1001C0007F02FD2A1DD8B3F1004F40EBC25008BF9B
:1001D00020F00100704790F0000F0CF0004C08BFB9
:1001E00049024CEA502040EA51207F3AC2BFD2F186
:1001F000FF0340EAC250704740F400004FF0000394
:10020000013A5DDC12F1190FDCBF00F000407047CD
:10021000C2F10002410021FA02F1C2F1200200FA0B
:1002200002FC5FEA310040F1000053EA4C0308BFD2
:1002300020EADC70704792F0000F00F0004C02BF23
:10024000400010F4000F013AF9D040EA0C0093F09E
:10025000000F01F0004C02BF490011F4000F013BF8
:10026000F9D041EA0C018FE70CEAD15392EA0C0F66
:1002700018BF93EA0C0F0AD030F0004C18BF31F0D1
:10028000004CD8D180EA010000F00040704790F0A7
:10029000000F17BF90F0004F084691F0000F91F04B
:1002A000004F14D092EA0C0F01D142020FD193EA11
:1002B0000C0F03D14B0218BF084608D180EA010099
:1002C00000F0004040F0FE4040F40000704740F075
:1002D000FE4040F44000704781F0004102E000BF62
:1002E00083F0004330B54FEA41044FEA430594EAF6
:1002F000050F08BF90EA020F1FBF54EA000C55EA31
:10030000020C7FEA645C7FEA655C00F0E2804FEA01
:100310005454D4EB5555B8BF6D420CDD2C4480EAE3
:10032000020281EA030382EA000083EA010180EA13
:10033000020281EA0303362D88BF30BD11F0004F61
:100340004FEA01314FF4801C4CEA113102D0404297
:1003500061EB410113F0004F4FEA03334CEA1333D2
:1003600002D0524263EB430394EA050F00F0A780EA
:10037000A4F10104D5F1200E0DDB02FA0EFC22FAE5
:1003800005F2801841F1000103FA0EF2801843FAD9
:1003900005F359410EE0A5F120050EF1200E012ACA
:1003A00003FA0EFC28BF4CF0020C43FA05F3C01808
:1003B00051EBE37101F0004507D54FF0000EDCF181
:1003C000000C7EEB00006EEB0101B1F5801F1BD32A
:1003D000B1F5001F0CD349085FEA30004FEA3C0C2E
:1003E00004F101044FEA445212F5800F80F09A8024
:1003F000BCF1004F08BF5FEA500C50F1000041EB28
:10040000045141EA050130BD5FEA4C0C404141EB2B
:100410000101013C28BFB1F5801FE9D291F0000F26
:1004200004BF01460020B1FA81F308BF2033A3F1D5
:100430000B03B3F120020CDA0C3208DD02F1140CCC
:10044000C2F10C0201FA0CF021FA02F10CE002F107
:100450001402D8BFC2F1200C01FA02F120FA0CFC00
:10046000DCBF41EA0C019040E41AA2BF01EB045149
:10047000294330BD6FEA04041F3C1CDA0C340EDC47
:1004800004F11404C4F1200220FA04F001FA02F38A
:1004900040EA030021FA04F345EA030130BDC4F148
:1004A0000C04C4F1200220FA02F001FA04F340EA3D
:1004B0000300294630BD21FA04F0294630BD94F0EE
:1004C000000F83F4801306BF81F480110134013DD5
:1004D0004EE77FEA645C18BF7FEA655C29D094EA46
:1004E000050F08BF90EA020F05D054EA000C04BFC4
:1004F0001946104630BD91EA030F1EBF00210020AF
:1005000030BD5FEA545C05D14000494128BF41F04D
:10051000004130BD14F580043CBF01F5801130BDB1
:1005200001F0004545F0FE4141F470014FF000003C
:1005300030BD7FEA645C1ABF194610467FEA655CED
:100540001CBF0B46024650EA013406BF52EA03358F
:1005500091EA030F41F4002130BD00BF90F0000F7D
:1005600004BF0021704730B54FF4806404F13204B9
:100570004FF000054FF0000150E700BF90F0000F72
:1005800004BF0021704730B54FF4806404F1320499
:1005900010F0004548BF40424FF000013EE700BF69
:1005A00042004FEAE2014FEA31014FEA02701FBFF9
:1005B00012F07F4393F07F4F81F06051704732F02B
:1005C0007F4208BF704793F07F4F04BF41F4002182
:1005D000704730B54FF4607401F0004521F00041E0
:1005E0001CE700BF50EA010208BF704730B54FF06A
:1005F00000050AE050EA010208BF704730B511F06B
:10060000004502D5404261EB41014FF4806404F1A2
:1006100032045FEA915C3FF4D8AE4FF003025FEA28
:10062000DC0C18BF03325FEADC0C18BF033202EBAC
:10063000DC02C2F1200300FA03FC20FA02F001FA06
:1006400003FE40EA0E0021FA02F11444BDE600BFA9
:1006500070B54FF0FF0C4CF4E06C1CEA11541DBF58
:100660001CEA135594EA0C0F95EA0C0F00F0DEF823
:100670002C4481EA030621EA4C5123EA4C5350EA08
:10068000013518BF52EA033541F4801143F4801359
:1006900038D0A0FB02CE4FF00005E1FB02E506F0EA
:1006A0000042E0FB03E54FF00006E1FB03569CF03F
:1006B000000F18BF4EF0010EA4F1FF04B6F5007F45
:1006C00064F5407404D25FEA4E0E6D4146EB0606B7
:1006D00042EAC62141EA55514FEAC52040EA5E5040
:1006E0004FEACE2EB4F1FD0C88BFBCF5E06F1ED8EA
:1006F000BEF1004F08BF5FEA500E50F1000041EB21
:10070000045170BD06F0004646EA010140EA0200CD
:1007100081EA0301B4EB5C04C2BFD4EB0C0541EAEF
:10072000045170BD41F480114FF0000E013C00F304
:10073000AB8014F1360FDEBF002001F0004170BD28
:10074000C4F10004203C35DA0C341BDC04F1140441
:10075000C4F1200500FA05F320FA04F001FA05F2CD
:1007600040EA020001F0004221F0004110EBD3709A
:1007700021FA04F642EB06015EEA430E08BF20EAC6
:10078000D37070BDC4F10C04C4F1200500FA04F369
:1007900020FA05F001FA04F240EA020001F00041FB
:1007A00010EBD37041F100015EEA430E08BF20EA6E
:1007B000D37070BDC4F1200500FA05F24EEA020EB6
:1007C00020FA04F301FA05F243EA020321FA04F0E5
:1007D00001F0004121FA04F220EA020000EBD3709C
:1007E0005EEA430E08BF20EAD37070BD94F0000F9C
:1007F0000FD101F00046400041EB010111F4801FD0
:1008000008BF013CF7D041EA060195F0000F18BF80
:10081000704703F00046520043EB030313F4801FBC
:1008200008BF013DF7D043EA0603704794EA0C0F76
:100830000CEA135518BF95EA0C0F0CD050EA41068C
:1008400018BF52EA4306D1D181EA030101F0004109
:100850004FF0000070BD50EA410606BF1046194631
:1008600052EA430619D094EA0C0F02D150EA01363D
:1008700013D195EA0C0F05D152EA03361CBF10467E
:1008800019460AD181EA030101F0004141F0FE411D
:1008900041F470014FF0000070BD41F0FE4141F4A1
:1008A000780170BD70B54FF0FF0C4CF4E06C1CEAA1
:1008B00011541DBF1CEA135594EA0C0F95EA0C0F56
:1008C00000F0A7F8A4EB050481EA030E52EA033511
:1008D0004FEA013100F088804FEA03334FF0805532
:1008E00045EA131343EA12634FEA022245EA11155F
:1008F00045EA10654FEA00260EF000419D4208BF10
:10090000964244F1FD0404F5407402D25B084FEABC
:100910003202B61A65EB03055B084FEA32024FF468
:1009200080104FF4002CB6EB020E75EB030E22BFC5
:10093000B61A754640EA0C005B084FEA3202B6EB85
:10094000020E75EB030E22BFB61A754640EA5C0034
:100950005B084FEA3202B6EB020E75EB030E22BFC4
:10096000B61A754640EA9C005B084FEA3202B6EBC5
:10097000020E75EB030E22BFB61A754640EADC0084
:1009800055EA060E18D04FEA051545EA16754FEAE6
:1009900006164FEAC30343EA52734FEAC2025FEA04
:1009A0001C1CC0D111F4801F0BD141EA00014FF093
:1009B00000004FF0004CB6E711F4801F04BF014364
:1009C0000020B4F1FD0C88BFBCF5E06F3FF6AFAE80
:1009D000B5EB030C04BFB6EB020C5FEA500C50F110
:1009E000000041EB045170BD0EF0004E4EEA113193
:1009F00014EB5C04C2BFD4EB0C0541EA045170BD9A
:100A000041F480114FF0000E013C90E645EA060EDD
:100A10008DE60CEA135594EA0C0F08BF95EA0C0F0B
:100A20003FF43BAF94EA0C0F0AD150EA01347FF453
:100A300034AF95EA0C0F7FF425AF104619462CE72A
:100A400095EA0C0F06D152EA03353FF4FDAE10468D
:100A5000194622E750EA410618BF52EA43067FF4DE
:100A6000C5AE50EA41047FF40DAF52EA43057FF46E
:100A7000EBAE12E74FEA4102B2F1E04324BFB3F517
:100A8000001CDCF1FE5C0DD901F0004C4FEAC00205
:100A90004CEA5070B2F1004F40EB830008BF20F0E9
:100AA0000100704711F0804F21D113F13872BCBFA3
:100AB00001F00040704741F480114FEA5252C2F1F8
:100AC0001802C2F1200C10FA0CF320FA02F018BF41
:100AD00040F001004FEAC1234FEAD32303FA0CFC94
:100AE00040EA0C0023FA02F34FEA4303CCE77FEA23
:100AF000625307D150EA01331EBF4FF0FE4040F46D
:100B00004000704701F0004040F0FE4040F400001B
:100B1000704700BF80F0004002E000BF81F000415C
:100B200042001FBF5FEA410392EA030F7FEA226C93
:100B30007FEA236C6AD04FEA1262D2EB1363C1BF23
:100B4000D218414048404140B8BF5B42192B88BF92
:100B5000704710F0004F40F4000020F07F4018BFB5
:100B6000404211F0004F41F4000121F07F4118BFD5
:100B7000494292EA030F3FD0A2F1010241FA03FC7D
:100B800010EB0C00C3F1200301FA03F100F0004365
:100B900002D5494260EB4000B0F5000F13D3B0F12D
:100BA000807F06D340084FEA310102F10102FE2A9C
:100BB00051D2B1F1004F40EBC25008BF20F001000C
:100BC00040EA03007047490040EB0000013A28BFAB
:100BD000B0F5000FEDD2B0FA80FCACF1080CB2EB2E
:100BE0000C0200FA0CF0AABF00EBC25052421843AC
:100BF000BCBFD0401843704792F0000F81F4000151
:100C000006BF80F400000132013BB5E74FEA410323
:100C10007FEA226C18BF7FEA236C21D092EA030F8F
:100C200004D092F0000F08BF0846704790EA010F09
:100C30001CBF0020704712F07F4F04D1400028BF36
:100C400040F00040704712F100723CBF00F5000018
:100C5000704700F0004343F0FE4040F4000070474E
:100C60007FEA226216BF08467FEA236301464202FA
:100C700006BF5FEA412390EA010F40F4800070470D
:100C80004FF0000304E000BF10F0004348BF4042B3
:100C90005FEA000C08BF704743F0964301464FF0EF
:100CA00000001CE050EA010208BF70474FF000034B
:100CB0000AE000BF50EA010208BF704711F000438C
:100CC00002D5404261EB41015FEA010C02BF84465C
:100CD0000146002043F0B64308BFA3F18053A3F5BB
:100CE0000003BCFA8CF2083AA3EBC25310DB01FA02
:100CF00002FC634400FA02FCC2F12002BCF1004F86
:100D000020FA02F243EB020008BF20F00100704716
:100D100002F1200201FA02FCC2F1200250EA4C006A
:100D200021FA02F243EB020008BF20EADC707047B0
:100D30004FF0FF3C06E000BF4FF0010C02E000BFA7
:100D40004FF0010C4DF804CD4FEA40024FEA410349
:100D50007FEA226C18BF7FEA236C11D001B052EAFF
:100D6000530C18BF90EA010F58BFB2EB030088BFC5
:100D7000C81738BF6FEAE17018BF40F00100704734
:100D80007FEA226C02D15FEA402C05D17FEA236C16
:100D9000E4D15FEA412CE1D05DF8040B704700BF5D
:100DA000844608466146FFE70FB5FFF7C9FF0028F4
:100DB00048BF10F1000F0FBD4DF808EDFFF7F4FF2D
:100DC0000CBF012000205DF808FB00BF4DF808EDC6
:100DD000FFF7EAFF34BF012000205DF808FB00BFE9
:100DE0004DF808EDFFF7E0FF94BF012000205DF80B
:100DF00008FB00BF4DF808EDFFF7D2FF94BF0120BC
:100E000000205DF808FB00BF4DF808EDFFF7C8FFB4
:100E100034BF012000205DF808FB00BF4FEA40020C
:100E2000B2F1FE4F0FD34FF09E03B3EB12620DD918
:100E30004FEA002343F0004310F0004F23FA02F082
:100E400018BF404270474FF00000704712F1610F29
:100E500001D1420205D110F0004008BF6FF0004000
:100E600070474FF00000704742000ED2B2F1FE4FC3
:100E70000BD34FF09E03B3EB126209D44FEA002369
:100E800043F0004323FA02F070474FF00000704730
:100E900012F1610F01D1420202D14FF0FF307047D1
:100EA0004FF00000704700BF80B500AF154B1B68C6
:100EB000DB78184600F0BCF8124B1B681B7918460B
:100EC00000F0D0F80F4B1B685B79184600F0E4F88F
:100ED0000C4B1B689A780B4B1B685B7819461046C5
:100EE00000F07CF8074B1B681B78184600F00CF8E4
:100EF0001D2000F0EBF84FF4840000F0F9F800BF7B
:100F000080BD00BF0800002080B485B000AF03465C
:100F1000FB710023FB73FB79012B1FD12E4B1B6848
:100F20002D4A43F48033136000BF2B4B1B6803F43E
:100F30000033002BF9D0284B5B68274A23F00303CA
:100F40005360254B5B68244A43F001035360224BF6
:100F50001B68214A23F00103136037E0FB79002B63
:100F600017D11D4B1B681C4A43F00103136000BFDF
:100F7000194B1B6803F00203002BF9D0164B5B687A
:100F8000154A23F003035360134B134A5B68536005
:100F90001CE0FB79022B19D10F4B1B680E4A43F062
:100FA0008073136000BF0C4B1B6803F00073002BB1
:100FB000F9D0094B5B68084A43F00203536000BF55
:100FC000054B5B6803F00C03082BF9D1FB7B18463B
:100FD0001437BD4680BC70470010024080B483B017
:100FE00000AF03460A46FB711346BB710F4B5B68AB
:100FF0000E4A23F4701353600C4B5B68BA79920469
:1010000011460A4A0B435360084B5B68074A23F4B6
:1010100080335360054B5A68FB79044913434B6096
:10102000012318460C37BD4680BC704700100240B3
:1010300080B483B000AF0346FB71094B5B68084A7C
:1010400023F0F0035360064B5B68FA7912011146F6
:10105000034A0B43536000BF0C37BD4680BC70474A
:101060000010024080B483B000AF0346FB71094B0F
:101070005B68084A23F4E0635360064B5B68FA79C7
:1010800012021146034A0B43536000BF0C37BD46A2
:1010900080BC70470010024080B483B000AF0346AC
:1010A000FB71094B5B68084A23F4F0435360064B1D
:1010B0005B68FA79D2021146034A0B43536000BFC2
:1010C0000C37BD4680BC70470010024080B483B02E
:1010D00000AF7860054B9A6904497B6813438B61C4
:1010E00000BF0C37BD4680BC704700BF00100240F7
:1010F00080B483B000AF7860054BDA6904497B683F
:101100001343CB6100BF0C37BD4680BC704700BFA6
:101110000010024080B588B000AF0346FB71364B2B
:101120005B689B08DBB203F00303FB74FB7C002BC2
:1011300002D1324BFB6111E0FB7C012B02D12F4B22
:10114000FB610BE0FB7C022B03D100F05DF8F86142
:1011500004E0FB7C032B01D10123FB61264B5B6880
:101160001B0903F00F03FB60FB68072B02D8012368
:10117000BB6105E0FB68083B214A32F81330BB61D4
:10118000FB79012B14D11C4B5B689B0A002B14BF0D
:1011900001230023DBB2FB60FB68032B02D8012391
:1011A0007B6105E0FB68043B164A32F813307B6133
:1011B000FB79022B14D1104B5B685B0B002B14BF27
:1011C00001230023DBB2FB60FB68032B02D8012361
:1011D0007B6105E0FB68043B0A4A32F813307B610F
:1011E000FA69BB69B2FBF3F27B69B2FBF3F3184611
:1011F0002037BD4680BD00BF0010024000127A00BB
:101200000C0000201C00002080B485B000AF1B4BF8
:101210005B681B0CDBB203F00103FB72174B5B68CE
:101220009B0C03F00F037B60144B5B685B0C03F0BB
:1012300001033B600023FB60FB7A002B09D1104ABD
:101240007B6813441B781A460E4B02FB03F3FB60CA
:101250000EE0FB7A012B0BD13B6801330A4AB2FB4B
:10126000F3F307497A680A44127802FB03F3FB6040
:10127000FB6818461437BD4680BC7047001002401A
:101280002400002000093D0000127A0080B483B0E1
:1012900000AF0346FB71FB791B09DBB203F00303CC
:1012A000DBB218460C37BD4680BC704780B483B0B3
:1012B00000AF0346FB71FB7903F00F03DBB2184666
:1012C0000C37BD4680BC704780B582B000AF0223AA
:1012D000FB710BE0FB795B00084A1A44FB7911466D
:1012E000184600F00DF8FB790133FB71FB79302BC8
:1012F000F0D900BF00BF0837BD4680BD34000020D4
:1013000080B582B000AF03463960FB713B68197845
:101310003B685A78FB79184600F004F800BF08379C
:10132000BD4680BD80B584B000AF0346FB710B465F
:10133000BB7113467B71FB791846FFF7B7FF034675
:101340001A462C4B1A70FB791846FFF79FFF03468D
:101350009B0203F1804303F58433FB60254B1B782C
:10136000072B1ED8FB681B68224A127892000F21B7
:1013700001FA02F2D2431A40FB681A60FB681B684C
:10138000B9791C4A1278920091407879194A1278FA
:101390009200023200FA02F20A431A43FB681A6012
:1013A00024E0144B1B7803F00703DAB2114B1A70D8
:1013B000FB685B680F4A127892000F2101FA02F273
:1013C000D2431A40FB685A60FB685B68B979094AE6
:1013D0001278920091407879064A1278920002328F
:1013E00000FA02F20A431A43FB685A6000BF103742
:1013F000BD4680BD1501002080B584B000AF034616
:101400000A46FB711346BB71FB791846FFF73EFF96
:1014100003469B0203F1804303F58433FB60BB79F1
:10142000002B10D0012B1DD1FB791846FFF73EFF92
:1014300003461A4601239340DA43FB68DB681A40EF
:10144000FB68DA600EE0FB791846FFF72FFF0346D2
:101450001A46012303FA02F2FB68DB681A43FB68B1
:10146000DA6000BF00BF1037BD4680BD90B585B0C3
:1014700000AF0346FB71FB791846FFF707FF0346F1
:101480009B0203F1804303F58433FB60FB689B6898
:101490009CB2FB791846FFF709FF03461A46012361
:1014A00093409BB223409BB218461437BD4690BD73
:1014B00080B500AF104B5B6903F01003002B18D010
:1014C0000D4B5B690C4A43F0100353610B4B1B78C7
:1014D000002B07D100212D20FFF78EFF074B0122A3
:1014E0001A7006E001212D20FFF786FF034B002232
:1014F0001A7000BF80BD00BF00040140140100202D
:1015000080B400AF1D4B1B681C4A43F400431360BA
:101510001A4B1B68194A23F400431360174B5B688E
:10152000164A23F01F035360144B08225A60134BD2
:10153000DB69124A23F47F6323F00F03D3610F4B5F
:10154000DB690E4A43F40043D3610C4BDB690B4A61
:1015500043F02803D361094B03221A62074B1B682F
:10156000064A43F480631360044B1B68034A43F04C
:101570000103136000BFBD4680BC704700580040A7
:1015800080B485B000AF0346FB71FB795B09FB7348
:10159000FB7903F01F03BB73BB7B012202FA03F14B
:1015A000044AFB7B42F8231000BF1437BD4680BCC1
:1015B000704700BF00E100E080B483B000AF786006
:1015C0007B680E4A1A607B6800225A717B68002291
:1015D0001A717B684FF416529A607B680022DA60B9
:1015E0007B68074A5A617B68064A9A617B680822D1
:1015F0005A7700BF0C37BD4680BC7047004400409E
:10160000480100209801002080B582B000AF7860CA
:101610007B681A687B685B791946104600F0F3F81E
:101620007B681A687B681B791946104600F003F93D
:101630007B681A687B68DB68DBB21946104600F0ED
:101640000CF97B681A687B689B681946104600F0A5
:1016500009F87B681B68184600F0C6F800BF083719
:10166000BD4680BDB0B588B000AF7860396001205C
:10167000FFF750FD78617869FEF770FF04460D466C
:101680003868FEF76BFF4FF00002264BFEF7E0FFD5
:1016900002460B4620462946FFF704F902460B4650
:1016A00010461946FFF7E6F903463B613869FFF734
:1016B000B5FB03461846FFF7E7FA034619463869B3
:1016C000FFF72CFA0346FB60F9683869FFF726FA42
:1016D00003461846FFF7C8FB0346FB614FF0834102
:1016E000F868FEF745FD0346184600F075FAB86144
:1016F000BB690F2B04D90023BB61FB690133FB617C
:101700007B689A68FB691B011A437B689A607B6857
:101710009A68BB691A437B689A6000BF2037BD4650
:10172000B0BD00BF0000304080B582B000AF78602F
:101730007B681B68184600F021FA3DE000BF7B681B
:101740001B688021184600F0A6F80346002BF6D04F
:101750007B681B79012B20D17B68DB68002B10D1C3
:101760007B685B691A787B681B685A607B685B6979
:101770005A1C7B685A617B685B695A1C7B685A619A
:101780001AE07B685B691A787B681B685A607B6823
:101790005B695A1C7B685A610EE07B681B79002BE1
:1017A0000AD17B685B691A787B681B685A607B6822
:1017B0005B695A1C7B685A617B685B691B78002BEC
:1017C000BCD100BF7B681B684021184600F063F85D
:1017D0000346012BF6D17B681B68184600F0DDF943
:1017E00000BF0837BD4680BD80B483B000AF7860CD
:1017F0007B68DB6843F400527B68DA6000BF0C371B
:10180000BD4680BC704780B483B000AF78600B46A3
:10181000FB707B681B6923F440527B681A617B680C
:101820001B69FA7812031A437B681A6100BF0C37F0
:10183000BD4680BC704780B483B000AF78600B4673
:10184000FB707B68DB68FA7812031A437B68DA6006
:1018500000BF0C37BD4680BC704780B483B000AF7A
:1018600078600B46FB70FB78012B06D17B68DB6848
:1018700043F480627B68DA6008E0FB78022B05D1D4
:101880007B68DB6843F4C0627B68DA6000BF0C37BA
:10189000BD4680BC704780B483B000AF78600B4613
:1018A000FB707B681A68FB781340002B01D0012382
:1018B00000E0002318460C37BD4680BC704780B559
:1018C00082B000AF78607B681B68184600F009F8AA
:1018D0007B681B68184600F051F900BF0837BD4609
:1018E00080BD80B582B000AF78607B68DB6843F074
:1018F000C0027B68DA602620FFF742FE00BF08378F
:10190000BD4680BD80B584B000AF78607B681B6841
:1019100040211846FFF7BFFF0346012B3AD18C4BFD
:101920001B780133DAB28A4B1A708A4B1B88013359
:101930009AB2884B1A807B685A69874B1B78591C6E
:10194000C8B28549087019461278844B5A547B688E
:101950005B691B78002B1DD1814B1B8801339AB228
:101960007F4B1A807B681B68DA687B681B6822F0F3
:101970008002DA607B681B68DA687B681B6822F08B
:101980004002DA607B681B68DA687B681B6822F0BB
:101990000802DA607B681B6880211846FFF77BFF2E
:1019A0000346012B6AD16F4B1B780133DAB26D4BC2
:1019B0001A707B685A696C4B1B78591CC8B26A490B
:1019C000087019461278694B5A547B685B691B781A
:1019D000002B45D0664B1B8801339AB2644B1A80AA
:1019E0007B681B79012B25D17B68DB68002B15D127
:1019F0007B685B69FB60FB681B881A467B681B6819
:101A0000C2F308025A607B685B695A1C7B685A61A2
:101A10007B685B695A1C7B685A612FE07B685B6955
:101A20001A787B681B685A607B685B695A1C7B6804
:101A30005A6123E07B681B79002B1FD14D4B1B881B
:101A400001339AB24B4B1A807B685B691A787B68CA
:101A50001B685A607B685B695A1C7B685A610DE0A1
:101A6000454B1B8801339AB2434B1A807B681B6835
:101A7000DA687B681B6822F08002DA607B681B688A
:101A800020211846FFF707FF0346012B5BD17B6837
:101A90005B7F002B4BD07B681B79012B25D17B68AA
:101AA000DB68002B14D17B681B685B689AB27B688B
:101AB0009B69C2F3080292B21A807B689B695A1C28
:101AC0007B689A617B689B695A1C7B689A613AE0E3
:101AD0007B681B685A687B689B69D2B21A707B6806
:101AE0009B695A1C7B689A612DE07B681B79002BEF
:101AF00029D17B68DB68002B0CD17B681B685A6896
:101B00007B689B69D2B21A707B689B695A1C7B68A0
:101B10009A6118E07B681B685A687B689B69D2B23F
:101B20001A707B689B695A1C7B689A610BE07B6822
:101B30005B7F002B07D17B681B68DA687B681B68BA
:101B400022F02002DA6000BF1037BD4680BD00BF22
:101B5000380100204001002038020020E801002068
:101B600042010020390100208C0200203C020020AC
:101B70003A0100203C0100203E01002080B483B0E7
:101B800000AF78607B68DB6843F008027B68DA604E
:101B900000BF0C37BD4680BC704780B483B000AF37
:101BA00078607B68DB6823F008027B68DA6000BF3E
:101BB0000C37BD4680BC704780B500AFFFF774F9A5
:101BC000FFF782FBFFF79CFC0248FFF71DFD00BFFB
:101BD00080BD00BF1801002080B586B000AF7860DE
:101BE0007868FFF71BF903463B617868FFF716F941
:101BF00003461846FFF748F8034619467868FEF78B
:101C00008DFF0346FB604FF07C51F868FFF7DEF86C
:101C10000346002B02D00023FB7509E04FF07C51F6
:101C2000F868FFF7E7F80346002B01D00123FB75A6
:101C3000FA7D3B69134418461837BD4680BD000045
:101C4000F0B58BB006AF8248FFF7B6FCFFF7B4FFE4
:101C50000120FFF75FFAB8607E4B5B687D4A23F096
:101C6000806353607B4B5B687A4A43F080635360C8
:101C7000774B5B697B60764B5B697749184600F070
:101C8000F5F90346FB707248FFF719FEFB78BB704D
:101C900000233B800123FB730920FFF7E7FB03468A
:101CA0005B0A9BB203F001033B80FB7B002BF3D06C
:101CB0003B88002BF0D00023FB73654B5869674BC2
:101CC0001B781E46664B1B789C46664B1B781A4653
:101CD000654B1B781946654B1B781C46644B1B787B
:101CE0001D46644B1B780493039502940191009266
:101CF00063463246604900F0B9F95548FFF714FDD4
:101D0000534B5B695D4A5E49184600F0AFF9504895
:101D1000FFF70AFD4E4B5B695A49184600F0A6F9D9
:101D20004B48FFF701FD4A4B5B69574A5749184634
:101D300000F09CF94648FFF7F7FC454B5B69544AB5
:101D400012785449184600F091F94148FFF7ECFC2D
:101D50003F4B58694E4B1B78013B484AD35C1A46AF
:101D60004D4900F083F93A48FFF7DEFC384B5B69D8
:101D70004A4A12784A49184600F078F93448FFF781
:101D8000D3FC334B5869454B1B781A463E4B9B5C42
:101D90001A46424B1B78434900F068F92C48FFF77C
:101DA000C3FC2B4B58693D4B1B78013B364AD35C37
:101DB0001A463A4B1B78013B3B4900F057F924483F
:101DC000FFF7B2FC224B5869344B1B78023B2E4A7A
:101DD000D35C1A46314B1B78023B344900F046F97C
:101DE0001B48FFF7A1FC1A4B58692C4B1B78033B8F
:101DF000254AD35C1A46294B1B78033B2A4900F03D
:101E000035F91348FFF790FC114B5869234B1B78A9
:101E1000043B1D4AD35C1A46204B1B78043B2349E4
:101E200000F024F90A48FFF77FFC094B58691B4B67
:101E30001B78053B144AD35C1A46184B1B78053BAC
:101E40001A4900F013F90248FFF76EFC24E700BFBF
:101E500018010020001002407829000838010020F5
:101E6000390100203A0100203C0100203E01002001
:101E7000400100204201002088290008E8010020DC
:101E8000D4290008E42900083C020020E8290008C1
:101E900038020020F8290008182A00088C020020C7
:101EA000302A0008502A0008742A00089C2A0008DA
:101EB00080B500AF0248FFF725FD00BF80BD00BF21
:101EC0001801002080B483B000AF204B5B6903F0A1
:101ED0004003402B35D11E4B1B780133DAB21C4B2B
:101EE0001A701B4B1B78012B18D1184B1B691AB2A7
:101EF000184B1A80174BB3F900301B021AB2154B5E
:101F00001A80124B1B68114A23F4806313600F4B35
:101F10001B680E4A43F40073136012E00C4B1B78ED
:101F2000022B0ED1094B1B699AB20A4BB3F9003050
:101F30009BB213439BB21AB2064B1A80044B002289
:101F40001A7000BF0C37BD4680BC70470058004077
:101F5000460100204401002080B586B000AF7860C3
:101F6000144A154BD31A7B617B693B61134B1B6889
:101F7000002B02D1114B124A1A60104B1A687B6871
:101F800013443A699A4207D200F046F803460C22FD
:101F90001A604FF0FF3309E0084B1B68FB60074BEA
:101FA0001A687B681344054A1360FB6818461837A3
:101FB000BD4680BD005000200004000090020020BB
:101FC000A80200200D488546AFF300800C480D495B
:101FD0000D4A002302E0D458C4500433C4188C4284
:101FE000F9D30A4A0A4C002301E013600432A242EA
:101FF000FBD300F017F8FFF723FEFEE700500020A8
:1020000000000020F8000020002B0008F80000204D
:10201000A4020020FEE70000014B1868704700BFD3
:102020009400002070B500260C4D0D4C641BA410CC
:10203000A64209D100F094FC00260A4D0A4C641B0C
:10204000A410A64205D170BD55F8043B984701364F
:10205000EEE755F8043B98470136F2E7F82A000806
:10206000F82A0008F82A0008FC2A00080EB46FF0CD
:10207000004100B59CB01DAB029006900791049101
:102080000848094953F8042B0591006802A90193F7
:1020900000F068F80022029B1A701CB05DF804EB97
:1020A00003B07047940000200802FFFF2DE9F047BD
:1020B0008E6882469E420C4690461F4638D88A89D2
:1020C00012F4906F32D0256809690133A5EB01093C
:1020D00065694B4405EB450505EBD5756D109D42D3
:1020E00038BF1D46530531D5294600F06FFB064623
:1020F00050B90C234FF0FF30CAF80030A38943F0E9
:102100004003A381BDE8F0874A46216900F0CEFA7A
:10211000A38923F4906343F08003A38126614E4496
:1021200026603E466561A5EB0905A560BE4200D963
:102130003E4632464146206800F0C6FAA3680020B9
:102140009B1BA360236833442360DBE72A4600F02F
:10215000B1FB06460028E1D15046216900F0CEFAD5
:10216000C7E700002DE9F04F98468B8907461B060C
:102170000D4614469DB00ED50B6963B9402100F0A1
:1021800025FB2860286120B90C233B604FF0FF300D
:10219000D1E040236B610023099320238DF829307F
:1021A00030234FF00109CDF80C80DFF8A4818DF8C1
:1021B0002A3023469A4613F8012B0AB1252AF9D171
:1021C000BAEB040B0BD05B46224629463846FFF794
:1021D0006DFF013000F0AA80099A5A4409929AF8DA
:1021E0000030002B00F0A28000234FF0FF32CDE939
:1021F00005230AF1010A049307938DF853301A93CB
:102200005446052214F8011B514800F041FA049A83
:10221000D8B9D00644BF20238DF85330110744BFEE
:102220002B238DF853309AF800302A2B15D05446C2
:1022300000204FF00A0C079A214611F8013B303B71
:10224000092B4ED9B0B1079214E0A0EB080309FAAC
:1022500003F31343A2460493D2E7039B191D1B68A3
:102260000391002BBBBF5B4242F00202079307932E
:10227000B8BF049223782E2B0CD163782A2B35D14A
:10228000039B02341A1D1B680392002BB8BF4FF04A
:10229000FF330593DFF8BCA003225046217800F0FD
:1022A000F7F940B14023A0EB0A0003FA00F0049BC9
:1022B00001340343049314F8011B062226488DF8C9
:1022C000281000F0E5F9002838D0244B1BBB039BF5
:1022D000073323F0070308330393099B334409931F
:1022E00067E70C4601200CFB0232A5E700234FF004
:1022F0000A0C194601340593204610F8012B303A98
:10230000092A03D9002BC5D00591C3E70446012350
:102310000CFB0121F0E703AB00932A463846104B33
:1023200004A9AFF30080421C0646D6D1AB895B06F8
:102330003FF52CAF09981DB0BDE8F08F03AB0093BB
:102340002A463846064B04A900F07CF8EBE700BFAC
:10235000C42A0008CA2A0008CE2A0008000000008B
:10236000AD2000082DE9F047164699468A680B69AA
:1023700007469342B8BF1346336091F843200C469A
:10238000DDF820800AB1013333602368990642BF2B
:10239000336802333360256815F0060506D104F171
:1023A000190AE36832689B1AAB4228DC94F8432090
:1023B000131E226818BF012392062DD449463846C1
:1023C00004F14302C047013020D02368E56803F0E0
:1023D0000603042B18BF002532684FF00006A368DF
:1023E00008BFAD1A226908BF25EAE5759342C4BF4C
:1023F0009B1AED181A34B5421AD1002008E00123C7
:10240000524649463846C047013003D14FF0FF30AD
:10241000BDE8F0870135C4E73020E11881F84300BA
:102420005A1C94F845102244023382F84310C5E741
:102430000123224649463846C0470130E6D00136DE
:10244000D9E700002DE9FF470F7E9146782F80469F
:102450000C469A460C9D01F1430207D8622F0AD818
:10246000002F00F0D980582F00F0A48004F142051D
:1024700084F842703AE0A7F16303152BF6D801A166
:1024800051F823F0DD240008F12400086D24000831
:102490006D2400086D2400086D240008F124000854
:1024A0006D2400086D2400086D2400086D240008C8
:1024B000FF25000821250008E12500086D240008FB
:1024C0006D240008212600086D240008212500083D
:1024D0006D2400086D240008E92500082B681A1DEA
:1024E0001B682A6004F1420584F842300123A4E00D
:1024F00020682968060601F104030AD50E682B60DE
:10250000002E03DA2D23764284F843300A235E48F6
:1025100019E00E6810F0400F2B6018BF36B2EFE7DD
:102520002B682068191D2960010601D51E6802E08C
:102530004606FBD51E886F2F0CBF08230A2352487E
:10254000002184F843106568002DA8BF2168A560AC
:10255000A4BF21F0040121600EB9002D4DD0154615
:10256000B6FBF3F103FB1167C75D05F8017D374644
:10257000BB420E46F4D9082B0BD12368DE0708D5E1
:10258000236961689942DEBF302305F8013C05F1FB
:10259000FF35521B22614B4621464046CDF800A034
:1025A00003AAFFF7DFFE01304CD14FF0FF3004B03B
:1025B000BDE8F087344881F845702968236851F8F0
:1025C000046B29601D0614D5DF0744BF43F02003C8
:1025D00023601EB9236823F0200323601023AFE794
:1025E000236843F0200323607823284884F845308B
:1025F000E3E7590648BFB6B2E6E71546BBE72B68E6
:102600002668181D6169286035061B6801D51960A8
:1026100002E07006FBD51980002315462361BAE756
:102620002B6800211A1D2A601D686268284600F088
:102630002FF808B1401B606063682361002384F8B1
:102640004330A8E72A46494640462369D04701302F
:10265000ABD023689B0713D4E068039B9842B8BFB4
:102660001846A4E70123324649464046D047013088
:102670009BD00135E36803995B1AAB42F2DCEBE7D0
:10268000002504F11906F5E7D52A0008E62A000816
:10269000034610B5C9B202449342184601D1002046
:1026A00003E0047801338C42F6D110BD0A44914214
:1026B00000F1FF3300D1704710B511F8014B914282
:1026C00003F8014FF9D110BD884210B501EB0204A7
:1026D00002D98442234607D8431EA14208D011F8EC
:1026E000012B03F8012FF8E7014602448A4200D18A
:1026F00010BD13F8014D02F8014DF7E738B5054656
:10270000002940D051F8043C0C1F002BB8BFE4183E
:1027100000F010F91C4A136833B96360146028464E
:10272000BDE8384000F00CB9A34208D92068211850
:102730008B4201BF19685B6809182160EDE71A46F2
:102740005B680BB1A342FAD911685018A0420BD1B3
:1027500020680144501883421160E0D118685B681A
:10276000014411605360DAE702D90C232B60D6E7ED
:10277000206821188B4201BF19685B680918216025
:1027800063605460CBE738BD9402002070B50E4EF4
:102790000C463168054611B900F0BCF8306021469E
:1027A000284600F0B7F8431C0AD0C41C24F00304E8
:1027B000A04207D0211A284600F0ACF8013001D120
:1027C0004FF0FF34204670BD980200202DE9F04103
:1027D000CD1C25F0030508350C2D38BF0C25002D28
:1027E000074601DBA94205D90C2300263B60304691
:1027F000BDE8F0812E4E00F09DF833681C4634BBD6
:1028000029463846FFF7C2FF431C04464DD13468C1
:102810002646002E40D123683146384604EB030893
:1028200000F078F880453AD1216803356D1A25F01B
:10283000030508350C2D38BF0C2538462946FFF70F
:10284000A5FF01302BD023682B4423600EE02268C3
:10285000521B1ED40B2A16D96119A342256018BF3A
:102860005960636808BF316062514B60384604F1BB
:102870000B0600F065F826F00706231DF21AB6D005
:102880009B1BA350B3E76268A3420CBF32605A603F
:10289000ECE723466468B2E734467668B9E70C2370
:1028A00038463B6000F04CF8A1E72560DEE700BF4A
:1028B000940200202DE9F041804614460E4621B9CD
:1028C0001146BDE8F041FFF781BF2AB9FFF716FFB7
:1028D00025462846BDE8F08100F038F884420746D6
:1028E00002D8B4EB500F12D821464046FFF76EFFD6
:1028F00005460028EDD0BC422246314628BF3A4664
:10290000FFF7D4FE31464046FFF7F8FEE1E73546D3
:10291000DFE7000038B50023054D044608462B606C
:10292000FFF71AFB431C02D12B6803B1236038BDAB
:102930009C020020014800F011B800BFA002002056
:10294000014800F00CB800BFA002002051F8043C80
:10295000181F002BBCBF0B58C0187047704770473A
:10296000F8B500BFF8BC08BC9E467047F8B500BF7C
:08297000F8BC08BC9E4670474C
:102978004920414D2054484520424553540D0A00F2
:1029880054435F433A252E33752C205458455F43F2
:102998003A252E3375204C435F313A252E33752066
:1029A8004C435F323A252E3375204C435F333A252A
:1029B8002E3375204C435F343A252E3375204C4313
:1029C8005F353A252E3375200D0A000074635F6267
:1029D80075666665723A2573000000000D0A0000EE
:1029E8007478655F6275666665723A2573000000E3
:1029F8007463204275666665722063757272656ECF
:102A08007420496E6465783A25640D0A0000000058
:102A180074635F62756666657220696E6465783A8C
:102A280025640D0A0000000074786520427566660A
:102A380065722063757272656E7420496E6465787C
:102A48003A25640D0A0000007478652042756666B0
:102A58006572206C61737420636861726163746568
:102A6800723A25642C25640D0A00000074786520EC
:102A7800427566666572207365635F6C6173742066
:102A88006368617261637465723A25642C25640D0C
:102A98000A000000747865204275666665722074C5
:102AA800686972645F6C61737420636861726163E2
:102AB8007465723A25642C25640D0A00232D302B89
:102AC8002000686C4C006566674546470030313227
:102AD800333435363738394142434445460030317E
:102AE80032333435363738396162636465660000DD
:042AF800550100087C
:042AFC00310100089C
:102B0000020100000000000000000020020004009C
:102B100008001000400080000001000202000400D4
:102B20000800100002030405060708090A0B0C0D33
:102B30000E0F101000000000030200010001010050
:102B40000000010003020002010001000100010079
:102B5000010001000100010001000100010001006D
:102B6000000200020002000203030303000200024D
:102B7000010001000100010001000100010001004D
:102B8000010001000100010001000100010001003D
:102B9000010000009800002000000000000000007C
:102BA0000000000000000000000000000000000025
:102BB0000000000000000000000000000000000015
:102BC0000000000000000000000000000000000005
:102BD00000000000000000000000000000000000F5
:102BE00000000000000000000000000000000000E5
:082BF0000000000000000000DD
:0400000508001FC50B
:00000001FF
