:020000040800F2
:1000000000500020612E0008B12E0008B12E00081B
:10001000B12E0008B12E0008B12E0008000000002B
:10002000000000000000000000000000B12E0008E9
:10003000B12E000800000000B12E0008B12E00080B
:10004000B12E0008B12E0008B12E0008B12E000814
:10005000B12E0008B12E0008B12E0008B12E000804
:10006000B12E0008B12E00086D190008B12E00084D
:10007000B12E0008B12E00082D1700084517000802
:100080005D17000875170008B12E0008B12E000892
:10009000B12E0008B12E0008B12E0008B12E0008C4
:1000A000B12E0008B12E0008B12E0008312400083E
:1000B000B12E0008B12E0008B12E0008B12E0008A4
:1000C000B12E0008011D0008B12E0008B12E000855
:1000D000B12E0008B12E000895290008B12E0008A5
:1000E000B12E0008B12E000800000000B12E00085B
:1000F000B12E0008B12E0008B12E0008B12E000864
:10010000B12E0008B12E0008B12E0008B12E000853
:10011000B12E0008B12E0008B12E0008B12E000843
:10012000B12E0008B12E0008B12E0008B12E000833
:1001300010B5054C237833B9044B13B10448AFF321
:1001400000800123237010BDC401002000000000C6
:10015000FC2E000808B5034B1BB103490348AFF35D
:10016000008008BD00000000C8010020FC2E00082F
:100170004FF0FF0C1CEAD0521EBF1CEAD15392EA8A
:100180000C0F93EA0C0F6FD01A4480EA010C400266
:1001900018BF5FEA41211ED04FF0006343EA5010C0
:1001A00043EA5111A0FB01310CF00040B1F5000F02
:1001B0003EBF490041EAD3715B0040EA010062F1B1
:1001C0007F02FD2A1DD8B3F1004F40EBC25008BF9B
:1001D00020F00100704790F0000F0CF0004C08BFB9
:1001E00049024CEA502040EA51207F3AC2BFD2F186
:1001F000FF0340EAC250704740F400004FF0000394
:10020000013A5DDC12F1190FDCBF00F000407047CD
:10021000C2F10002410021FA02F1C2F1200200FA0B
:1002200002FC5FEA310040F1000053EA4C0308BFD2
:1002300020EADC70704792F0000F00F0004C02BF23
:10024000400010F4000F013AF9D040EA0C0093F09E
:10025000000F01F0004C02BF490011F4000F013BF8
:10026000F9D041EA0C018FE70CEAD15392EA0C0F66
:1002700018BF93EA0C0F0AD030F0004C18BF31F0D1
:10028000004CD8D180EA010000F00040704790F0A7
:10029000000F17BF90F0004F084691F0000F91F04B
:1002A000004F14D092EA0C0F01D142020FD193EA11
:1002B0000C0F03D14B0218BF084608D180EA010099
:1002C00000F0004040F0FE4040F40000704740F075
:1002D000FE4040F44000704781F0004102E000BF62
:1002E00083F0004330B54FEA41044FEA430594EAF6
:1002F000050F08BF90EA020F1FBF54EA000C55EA31
:10030000020C7FEA645C7FEA655C00F0E2804FEA01
:100310005454D4EB5555B8BF6D420CDD2C4480EAE3
:10032000020281EA030382EA000083EA010180EA13
:10033000020281EA0303362D88BF30BD11F0004F61
:100340004FEA01314FF4801C4CEA113102D0404297
:1003500061EB410113F0004F4FEA03334CEA1333D2
:1003600002D0524263EB430394EA050F00F0A780EA
:10037000A4F10104D5F1200E0DDB02FA0EFC22FAE5
:1003800005F2801841F1000103FA0EF2801843FAD9
:1003900005F359410EE0A5F120050EF1200E012ACA
:1003A00003FA0EFC28BF4CF0020C43FA05F3C01808
:1003B00051EBE37101F0004507D54FF0000EDCF181
:1003C000000C7EEB00006EEB0101B1F5801F1BD32A
:1003D000B1F5001F0CD349085FEA30004FEA3C0C2E
:1003E00004F101044FEA445212F5800F80F09A8024
:1003F000BCF1004F08BF5FEA500C50F1000041EB28
:10040000045141EA050130BD5FEA4C0C404141EB2B
:100410000101013C28BFB1F5801FE9D291F0000F26
:1004200004BF01460020B1FA81F308BF2033A3F1D5
:100430000B03B3F120020CDA0C3208DD02F1140CCC
:10044000C2F10C0201FA0CF021FA02F10CE002F107
:100450001402D8BFC2F1200C01FA02F120FA0CFC00
:10046000DCBF41EA0C019040E41AA2BF01EB045149
:10047000294330BD6FEA04041F3C1CDA0C340EDC47
:1004800004F11404C4F1200220FA04F001FA02F38A
:1004900040EA030021FA04F345EA030130BDC4F148
:1004A0000C04C4F1200220FA02F001FA04F340EA3D
:1004B0000300294630BD21FA04F0294630BD94F0EE
:1004C000000F83F4801306BF81F480110134013DD5
:1004D0004EE77FEA645C18BF7FEA655C29D094EA46
:1004E000050F08BF90EA020F05D054EA000C04BFC4
:1004F0001946104630BD91EA030F1EBF00210020AF
:1005000030BD5FEA545C05D14000494128BF41F04D
:10051000004130BD14F580043CBF01F5801130BDB1
:1005200001F0004545F0FE4141F470014FF000003C
:1005300030BD7FEA645C1ABF194610467FEA655CED
:100540001CBF0B46024650EA013406BF52EA03358F
:1005500091EA030F41F4002130BD00BF90F0000F7D
:1005600004BF0021704730B54FF4806404F13204B9
:100570004FF000054FF0000150E700BF90F0000F72
:1005800004BF0021704730B54FF4806404F1320499
:1005900010F0004548BF40424FF000013EE700BF69
:1005A00042004FEAE2014FEA31014FEA02701FBFF9
:1005B00012F07F4393F07F4F81F06051704732F02B
:1005C0007F4208BF704793F07F4F04BF41F4002182
:1005D000704730B54FF4607401F0004521F00041E0
:1005E0001CE700BF50EA010208BF704730B54FF06A
:1005F00000050AE050EA010208BF704730B511F06B
:10060000004502D5404261EB41014FF4806404F1A2
:1006100032045FEA915C3FF4D8AE4FF003025FEA28
:10062000DC0C18BF03325FEADC0C18BF033202EBAC
:10063000DC02C2F1200300FA03FC20FA02F001FA06
:1006400003FE40EA0E0021FA02F11444BDE600BFA9
:1006500070B54FF0FF0C4CF4E06C1CEA11541DBF58
:100660001CEA135594EA0C0F95EA0C0F00F0DEF823
:100670002C4481EA030621EA4C5123EA4C5350EA08
:10068000013518BF52EA033541F4801143F4801359
:1006900038D0A0FB02CE4FF00005E1FB02E506F0EA
:1006A0000042E0FB03E54FF00006E1FB03569CF03F
:1006B000000F18BF4EF0010EA4F1FF04B6F5007F45
:1006C00064F5407404D25FEA4E0E6D4146EB0606B7
:1006D00042EAC62141EA55514FEAC52040EA5E5040
:1006E0004FEACE2EB4F1FD0C88BFBCF5E06F1ED8EA
:1006F000BEF1004F08BF5FEA500E50F1000041EB21
:10070000045170BD06F0004646EA010140EA0200CD
:1007100081EA0301B4EB5C04C2BFD4EB0C0541EAEF
:10072000045170BD41F480114FF0000E013C00F304
:10073000AB8014F1360FDEBF002001F0004170BD28
:10074000C4F10004203C35DA0C341BDC04F1140441
:10075000C4F1200500FA05F320FA04F001FA05F2CD
:1007600040EA020001F0004221F0004110EBD3709A
:1007700021FA04F642EB06015EEA430E08BF20EAC6
:10078000D37070BDC4F10C04C4F1200500FA04F369
:1007900020FA05F001FA04F240EA020001F00041FB
:1007A00010EBD37041F100015EEA430E08BF20EA6E
:1007B000D37070BDC4F1200500FA05F24EEA020EB6
:1007C00020FA04F301FA05F243EA020321FA04F0E5
:1007D00001F0004121FA04F220EA020000EBD3709C
:1007E0005EEA430E08BF20EAD37070BD94F0000F9C
:1007F0000FD101F00046400041EB010111F4801FD0
:1008000008BF013CF7D041EA060195F0000F18BF80
:10081000704703F00046520043EB030313F4801FBC
:1008200008BF013DF7D043EA0603704794EA0C0F76
:100830000CEA135518BF95EA0C0F0CD050EA41068C
:1008400018BF52EA4306D1D181EA030101F0004109
:100850004FF0000070BD50EA410606BF1046194631
:1008600052EA430619D094EA0C0F02D150EA01363D
:1008700013D195EA0C0F05D152EA03361CBF10467E
:1008800019460AD181EA030101F0004141F0FE411D
:1008900041F470014FF0000070BD41F0FE4141F4A1
:1008A000780170BD70B54FF0FF0C4CF4E06C1CEAA1
:1008B00011541DBF1CEA135594EA0C0F95EA0C0F56
:1008C00000F0A7F8A4EB050481EA030E52EA033511
:1008D0004FEA013100F088804FEA03334FF0805532
:1008E00045EA131343EA12634FEA022245EA11155F
:1008F00045EA10654FEA00260EF000419D4208BF10
:10090000964244F1FD0404F5407402D25B084FEABC
:100910003202B61A65EB03055B084FEA32024FF468
:1009200080104FF4002CB6EB020E75EB030E22BFC5
:10093000B61A754640EA0C005B084FEA3202B6EB85
:10094000020E75EB030E22BFB61A754640EA5C0034
:100950005B084FEA3202B6EB020E75EB030E22BFC4
:10096000B61A754640EA9C005B084FEA3202B6EBC5
:10097000020E75EB030E22BFB61A754640EADC0084
:1009800055EA060E18D04FEA051545EA16754FEAE6
:1009900006164FEAC30343EA52734FEAC2025FEA04
:1009A0001C1CC0D111F4801F0BD141EA00014FF093
:1009B00000004FF0004CB6E711F4801F04BF014364
:1009C0000020B4F1FD0C88BFBCF5E06F3FF6AFAE80
:1009D000B5EB030C04BFB6EB020C5FEA500C50F110
:1009E000000041EB045170BD0EF0004E4EEA113193
:1009F00014EB5C04C2BFD4EB0C0541EA045170BD9A
:100A000041F480114FF0000E013C90E645EA060EDD
:100A10008DE60CEA135594EA0C0F08BF95EA0C0F0B
:100A20003FF43BAF94EA0C0F0AD150EA01347FF453
:100A300034AF95EA0C0F7FF425AF104619462CE72A
:100A400095EA0C0F06D152EA03353FF4FDAE10468D
:100A5000194622E750EA410618BF52EA43067FF4DE
:100A6000C5AE50EA41047FF40DAF52EA43057FF46E
:100A7000EBAE12E74FEA4102B2F1E04324BFB3F517
:100A8000001CDCF1FE5C0DD901F0004C4FEAC00205
:100A90004CEA5070B2F1004F40EB830008BF20F0E9
:100AA0000100704711F0804F21D113F13872BCBFA3
:100AB00001F00040704741F480114FEA5252C2F1F8
:100AC0001802C2F1200C10FA0CF320FA02F018BF41
:100AD00040F001004FEAC1234FEAD32303FA0CFC94
:100AE00040EA0C0023FA02F34FEA4303CCE77FEA23
:100AF000625307D150EA01331EBF4FF0FE4040F46D
:100B00004000704701F0004040F0FE4040F400001B
:100B1000704700BF80F0004002E000BF81F000415C
:100B200042001FBF5FEA410392EA030F7FEA226C93
:100B30007FEA236C6AD04FEA1262D2EB1363C1BF23
:100B4000D218414048404140B8BF5B42192B88BF92
:100B5000704710F0004F40F4000020F07F4018BFB5
:100B6000404211F0004F41F4000121F07F4118BFD5
:100B7000494292EA030F3FD0A2F1010241FA03FC7D
:100B800010EB0C00C3F1200301FA03F100F0004365
:100B900002D5494260EB4000B0F5000F13D3B0F12D
:100BA000807F06D340084FEA310102F10102FE2A9C
:100BB00051D2B1F1004F40EBC25008BF20F001000C
:100BC00040EA03007047490040EB0000013A28BFAB
:100BD000B0F5000FEDD2B0FA80FCACF1080CB2EB2E
:100BE0000C0200FA0CF0AABF00EBC25052421843AC
:100BF000BCBFD0401843704792F0000F81F4000151
:100C000006BF80F400000132013BB5E74FEA410323
:100C10007FEA226C18BF7FEA236C21D092EA030F8F
:100C200004D092F0000F08BF0846704790EA010F09
:100C30001CBF0020704712F07F4F04D1400028BF36
:100C400040F00040704712F100723CBF00F5000018
:100C5000704700F0004343F0FE4040F4000070474E
:100C60007FEA226216BF08467FEA236301464202FA
:100C700006BF5FEA412390EA010F40F4800070470D
:100C80004FF0000304E000BF10F0004348BF4042B3
:100C90005FEA000C08BF704743F0964301464FF0EF
:100CA00000001CE050EA010208BF70474FF000034B
:100CB0000AE000BF50EA010208BF704711F000438C
:100CC00002D5404261EB41015FEA010C02BF84465C
:100CD0000146002043F0B64308BFA3F18053A3F5BB
:100CE0000003BCFA8CF2083AA3EBC25310DB01FA02
:100CF00002FC634400FA02FCC2F12002BCF1004F86
:100D000020FA02F243EB020008BF20F00100704716
:100D100002F1200201FA02FCC2F1200250EA4C006A
:100D200021FA02F243EB020008BF20EADC707047B0
:100D30004FF0FF3C06E000BF4FF0010C02E000BFA7
:100D40004FF0010C4DF804CD4FEA40024FEA410349
:100D50007FEA226C18BF7FEA236C11D001B052EAFF
:100D6000530C18BF90EA010F58BFB2EB030088BFC5
:100D7000C81738BF6FEAE17018BF40F00100704734
:100D80007FEA226C02D15FEA402C05D17FEA236C16
:100D9000E4D15FEA412CE1D05DF8040B704700BF5D
:100DA000844608466146FFE70FB5FFF7C9FF0028F4
:100DB00048BF10F1000F0FBD4DF808EDFFF7F4FF2D
:100DC0000CBF012000205DF808FB00BF4DF808EDC6
:100DD000FFF7EAFF34BF012000205DF808FB00BFE9
:100DE0004DF808EDFFF7E0FF94BF012000205DF80B
:100DF00008FB00BF4DF808EDFFF7D2FF94BF0120BC
:100E000000205DF808FB00BF4DF808EDFFF7C8FFB4
:100E100034BF012000205DF808FB00BF4FEA40020C
:100E2000B2F1FE4F0FD34FF09E03B3EB12620DD918
:100E30004FEA002343F0004310F0004F23FA02F082
:100E400018BF404270474FF00000704712F1610F29
:100E500001D1420205D110F0004008BF6FF0004000
:100E600070474FF00000704742000ED2B2F1FE4FC3
:100E70000BD34FF09E03B3EB126209D44FEA002369
:100E800043F0004323FA02F070474FF00000704730
:100E900012F1610F01D1420202D14FF0FF307047D1
:100EA0004FF00000704700BF80B500AF184B1B68C3
:100EB000DB78184600F0C2F8154B1B681B79184602
:100EC00000F0D6F8124B1B685B79184600F0EAF880
:100ED0000F4B1B689A780E4B1B685B7819461046BF
:100EE00000F082F80A4B1B681B78184600F012F8D5
:100EF000012000F015F941F61D0000F0EDF84FF467
:100F0000840000F0FBF800F0D9F900BF80BD00BFFD
:100F10000800002080B485B000AF0346FB710023B9
:100F2000FB73FB79012B1FD12E4B1B682D4A43F419
:100F30008033136000BF2B4B1B6803F40033002B7E
:100F4000F9D0284B5B68274A23F003035360254BF5
:100F50005B68244A43F001035360224B1B68214A1B
:100F600023F00103136037E0FB79002B17D11D4BF1
:100F70001B681C4A43F00103136000BF194B1B6838
:100F800003F00203002BF9D0164B5B68154A23F0DF
:100F900003035360134B134A5B6853601CE0FB79F7
:100FA000022B19D10F4B1B680E4A43F0807313605C
:100FB00000BF0C4B1B6803F00073002BF9D0094BEA
:100FC0005B68084A43F00203536000BF054B5B684F
:100FD00003F00C03082BF9D1FB7B18461437BD46F0
:100FE00080BC70470010024080B483B000AF03465D
:100FF0000A46FB711346BB710F4B5B680E4A23F424
:10100000701353600C4B5B68BA79920411460A4A1C
:101010000B435360084B5B68074A23F480335360EB
:10102000054B5A68FB79044913434B60012318466A
:101030000C37BD4680BC70470010024080B483B0BE
:1010400000AF0346FB71094B5B68084A23F0F003CD
:101050005360064B5B68FA7912011146034A0B4351
:10106000536000BF0C37BD4680BC70470010024083
:1010700080B483B000AF0346FB71094B5B68084A3C
:1010800023F4E0635360064B5B68FA791202114661
:10109000034A0B43536000BF0C37BD4680BC70470A
:1010A0000010024080B483B000AF0346FB71094BCF
:1010B0005B68084A23F4F0435360064B5B68FA7997
:1010C000D2021146034A0B43536000BF0C37BD46A2
:1010D00080BC70470010024080B483B000AF7860DD
:1010E000054B9A6904497B6813438B6100BF0C3739
:1010F000BD4680BC704700BF0010024080B483B082
:1011000000AF7860054BDA6904497B681343CB6113
:1011100000BF0C37BD4680BC704700BF00100240C6
:1011200080B483B000AF7860054B5A6904497B688E
:1011300013434B6100BF0C37BD4680BC704700BFF6
:101140000010024080B588B000AF0346FB71364BFB
:101150005B689B08DBB203F00303FB74FB7C002B92
:1011600002D1324BFB6111E0FB7C012B02D12F4BF2
:10117000FB610BE0FB7C022B03D100F05DF8F86112
:1011800004E0FB7C032B01D10123FB61264B5B6850
:101190001B0903F00F03FB60FB68072B02D8012338
:1011A000BB6105E0FB68083B214A32F81330BB61A4
:1011B000FB79012B14D11C4B5B689B0A002B14BFDD
:1011C00001230023DBB2FB60FB68032B02D8012361
:1011D0007B6105E0FB68043B164A32F813307B6103
:1011E000FB79022B14D1104B5B685B0B002B14BFF7
:1011F00001230023DBB2FB60FB68032B02D8012331
:101200007B6105E0FB68043B0A4A32F813307B61DE
:10121000FA69BB69B2FBF3F27B69B2FBF3F31846E0
:101220002037BD4680BD00BF0010024000127A008A
:101230000C0000201C00002080B485B000AF1B4BC8
:101240005B681B0CDBB203F00103FB72174B5B689E
:101250009B0C03F00F037B60144B5B685B0C03F08B
:1012600001033B600023FB60FB7A002B09D1104A8D
:101270007B6813441B781A460E4B02FB03F3FB609A
:101280000EE0FB7A012B0BD13B6801330A4AB2FB1B
:10129000F3F307497A680A44127802FB03F3FB6010
:1012A000FB6818461437BD4680BC704700100240EA
:1012B0002400002000093D0000127A0080B400AF35
:1012C000084B5B6A074A43F00103536200BF054BBA
:1012D0005B6A03F00203002BF9D000BF00BFBD46DC
:1012E00080BC70470010024080B582B000AF7860CB
:1012F0000B46FB70FB78591EFB785A1E98480B462C
:101300005B000B44DB0003441968786813469B00BC
:1013100013449B00034414331960FB78591EFB7877
:101320005A1E8F480B465B000B44DB00034404331A
:101330001968786813469B0013449B0003441033DC
:101340001960FB78591EFB785A1E85480B465B00D6
:101350000B44DB00034408331968786813469B008C
:1013600013449B0003440C331960FB785A1E7C49DC
:1013700013465B001344DB000B4410331B78002B37
:1013800016D0FB785A1E796813469B0013449B00C5
:101390000B4408331B68FA78013A43F0100178686F
:1013A00013469B0013449B0003440833196015E067
:1013B000FB785A1E796813469B0013449B000B442C
:1013C00008331B68FA78013A23F010017868134655
:1013D0009B0013449B00034408331960FB785A1E9A
:1013E000796813469B0013449B000B4408331B6829
:1013F000FA78013A23F44051786813469B0013446D
:101400009B00034408331960FB785A1E7968134621
:101410009B0013449B000B4408331968FB785A1E49
:101420004F4813465B001344DB0003440C331B6836
:101430001B03FA78013A1943786813469B0013445A
:101440009B00034408331960FB785A1E4449134635
:101450005B001344DB000B4411331B78002B16D0C8
:10146000FB785A1E796813469B0013449B000B447B
:1014700008331B68FA78013A43F020017868134674
:101480009B0013449B0003440833196015E0FB786C
:101490005A1E796813469B0013449B000B44083383
:1014A0001B68FA78013A23F02001786813469B0004
:1014B00013449B00034408331960FB785A1E796873
:1014C00013469B0013449B000B4408331B68FA78B7
:1014D000013A43F08001786813469B0013449B0057
:1014E000034408331960FB785A1E796813469B0041
:1014F00013449B000B4408331968FB785A1E1848A4
:1015000013465B001344DB00034415331B78184675
:10151000FB785A1E0143786813469B0013449B00D6
:10152000034408331960FB785A1E0D4913465B00CB
:101530001344DB000B4415331B78002B0CD0FB78D5
:101540005A1E074913465B001344DB000B44163355
:101550001B78184600F042FD00BF0837BD4680BD2D
:101560003400002080B483B000AF78600B46FB707D
:1015700013463B80FB785A1E3988786813469B00D7
:1015800013449B0003440C33196000BF0C37BD4665
:1015900080BC704780B483B000AF78600B46FB70AE
:1015A00013463B803B88002B16D0FB785A1E796887
:1015B00013469B0013449B000B4408331B68FA78C6
:1015C000013A43F00101786813469B0013449B00E5
:1015D00003440833196015E0FB785A1E79681346F6
:1015E0009B0013449B000B4408331B68FA78013AB4
:1015F00023F00101786813469B0013449B000344C9
:101600000833196000BF0C37BD4680BC704780B4FA
:1016100083B000AF786039607B681B681B0D03F0F6
:101620000103002B05D07B685B6843F480127B6864
:101630005A6000BF0C37BD4680BC704780B483B091
:1016400000AF786039607B681B681B0E03F00103F4
:10165000002B05D07B685B6843F080727B685A6022
:1016600000BF0C37BD4680BC7047000080B582B01B
:1016700000AF786039607B681B681B0B03F00103C7
:10168000002B29D07B685B6843F480527B685A60EA
:10169000002204211248FFF77DFF124B1B78002B1C
:1016A0000BD100BF0421386800F0B4FA0346002BC8
:1016B000F8D0386800F09CFA0EE00A4B1B78002B3B
:1016C0000AD000BF0421386800F0A4FA0346002BBA
:1016D000F8D0054800F002FB00BF0837BD4680BDCA
:1016E00000000240300200200058004080B582B067
:1016F00000AF786039607B681B681B0C03F0010346
:10170000002B0ED07B685B6843F480327B685A60A4
:101710003B685B6823F400623B685A60386800F0FD
:1017200067FA00BF0837BD4680BD000080B500AF36
:1017300002490348FFF79AFF00BF80BD00580040F0
:101740000000024080B500AF02490348FFF7CEFF1A
:1017500000BF80BD005800400000024080B500AFCF
:1017600002490348FFF753FF00BF80BD004400401B
:101770000000024080B500AF02490348FFF75EFF5A
:1017800000BF80BD004400400000024080B483B030
:1017900000AF0346FB71FB791B09DBB203F00303C7
:1017A000DBB218460C37BD4680BC704780B483B0AE
:1017B00000AF0346FB71FB7903F00F03DBB2184661
:1017C0000C37BD4680BC704780B582B000AF0223A5
:1017D000FB710BE0FB795B00084A1A44FB79114668
:1017E000184600F00DF8FB790133FB71FB79302BC3
:1017F000F0D900BF00BF0837BD4680BDDC00002027
:1018000080B582B000AF03463960FB713B68197840
:101810003B685A78FB79184600F004F800BF083797
:10182000BD4680BD80B584B000AF0346FB710B465A
:10183000BB7113467B71FB791846FFF7B7FF034670
:101840001A462C4B1A70FB791846FFF79FFF034688
:101850009B0203F1804303F58433FB60254B1B7827
:10186000072B1ED8FB681B68224A127892000F21B2
:1018700001FA02F2D2431A40FB681A60FB681B6847
:10188000B9791C4A1278920091407879194A1278F5
:101890009200023200FA02F20A431A43FB681A600D
:1018A00024E0144B1B7803F00703DAB2114B1A70D3
:1018B000FB685B680F4A127892000F2101FA02F26E
:1018C000D2431A40FB685A60FB685B68B979094AE1
:1018D0001278920091407879064A1278920002328A
:1018E00000FA02F20A431A43FB685A6000BF10373D
:1018F000BD4680BDE101002080B584B000AF034645
:101900000A46FB711346BB71FB791846FFF73EFF91
:1019100003469B0203F1804303F58433FB60BB79EC
:10192000002B10D0012B1DD1FB791846FFF73EFF8D
:1019300003461A4601239340DA43FB68DB681A40EA
:10194000FB68DA600EE0FB791846FFF72FFF0346CD
:101950001A46012303FA02F2FB68DB681A43FB68AC
:10196000DA6000BF00BF1037BD4680BD80B500AF54
:10197000104B5B6903F01003002B18D00D4B5B6913
:101980000C4A43F0100353610B4B1B78002B07D11B
:1019900000212D20FFF7B0FF074B01221A7006E04F
:1019A00001212D20FFF7A8FF034B00221A7000BF72
:1019B00080BD00BF00040140E001002080B582B07E
:1019C00000AF78600B46FB70786800F0EBFAFA78AD
:1019D0007C4913469B0013449B000B441B78002B4F
:1019E0000FD07B68D969FA78764813469B00134478
:1019F0009B0003441B78DB0341EA03027B68DA6146
:101A000005E07B68DB6923F400427B68DA61FA78E1
:101A10006C4913469B0013449B000B4401331B7815
:101A2000002B10D07B685968FA78664813469B00F3
:101A300013449B00034401331B78DB0241EA030299
:101A40007B685A6005E07B685B6823F400627B6812
:101A50005A60FA785B4913469B0013449B000B4481
:101A600002331B78002B10D07B685968FA785548F0
:101A700013469B0013449B00034402331B789B02D4
:101A800041EA03027B685A6005E07B685B6823F4E7
:101A900080627B685A60FA784A4913469B00134477
:101AA0009B000B4403331B78002B10D07B685968D4
:101AB000FA78444813469B0013449B0003440333C5
:101AC0001B785B0241EA03027B685A6005E07B6891
:101AD0005B6823F400727B685A60FA7839491346D0
:101AE0009B0013449B000B4404331B78002B10D045
:101AF0007B685968FA78334813469B0013449B006F
:101B0000034404331B781B0241EA03027B685A60DA
:101B100005E07B685B6823F480727B685A607B68B1
:101B20005968FA78274813469B0013449B000344E6
:101B300005331B7841EA03027B685A607B68D969E8
:101B4000FA78204813469B0013449B000344083353
:101B50001B6841EA03027B68DA61FA781949134687
:101B60009B0013449B000B440C331B78002B06D0C6
:101B70007B68DB6943F480427B68DA6105E07B685F
:101B8000DB6923F480427B68DA617B68196AFA7842
:101B90000C4813469B0013449B00034410331B68FE
:101BA00041EA03027B681A62786800F088F8786876
:101BB00000F058F8212000F011FA00BF0837BD46A8
:101BC00080BD00BF3C01002080B483B000AF7860CE
:101BD0000B46FB701346BB70FA78BB781343DBB23D
:101BE0001A467B681A6100BF0C37BD4680BC70473F
:101BF00080B483B000AF7860054B1B68044A43F49F
:101C00000073136000BF0C37BD4680BC704700BF37
:101C10000058004080B483B000AF78600B46FB7082
:101C20007B685A69FB781340002B01D0012300E048
:101C3000002318460C37BD4680BC704780B483B083
:101C400000AF78600B46FB707B689A69FB781340A5
:101C5000002B01D0012300E0002318460C37BD46BD
:101C600080BC704780B483B000AF78607B681B682D
:101C700043F480627B681A6000BF0C37BD4680BCAD
:101C8000704780B483B000AF78607B681B6823F432
:101C900080627B681A6000BF0C37BD4680BC70470D
:101CA00080B485B000AF78607B685B69FB607B685F
:101CB0009B69FB6000BF1437BD4680BC704780B491
:101CC00083B000AF78607B681B6843F001027B68DB
:101CD0001A6000BF0C37BD4680BC704780B483B02B
:101CE00000AF7860054B1B68044A43F480731360AF
:101CF00000BF0C37BD4680BC704700BF0058004095
:101D000080B582B000AF354B5B6803F40073002BE5
:101D100057D001213148FFF77DFF0346012B15D134
:101D20002E4B5B697B602E4B1B78002B05D000226D
:101D3000A0212A48FFF748FF08E0294B1B78002B19
:101D400004D10122A0212548FFF73EFF02212348AC
:101D5000FFF760FF0346012B29D1214B1B78002B95
:101D600014D01E48FFF79CFF1D4B00221A701D4B1C
:101D70001B78002B1BD0022204211B48FFF7F2FB2B
:101D8000012204211848FFF705FC10E0144B1B78D2
:101D9000002B0CD11148FFF783FF144B1B78002B4D
:101DA00005D10E48FFF76DFF0C48FFF721FF042116
:101DB0000A48FFF72FFF0346012B02D10748FFF720
:101DC00017FF064B5B6803F48063002B01D000F023
:101DD0000FF800BF0837BD4680BD00BF0058004067
:101DE0002C02002030020020000002402F020020C0
:101DF00080B500AF04216048FFF720FF0346012BA8
:101E000037D180215C48FFF705FF0346012B40F0E6
:101E1000B0805A4B1B78002B08D0584B00221A7008
:101E2000574B93F90030DAB2564B1A70544B93F972
:101E30000030DAB2013AD2B251B2514A1170002BDD
:101E40000BDD514B1B785A1CD1B24F4A11701A4608
:101E50004E4B9A5C484B1A618BE04D4B1B78002B24
:101E600000F087804A4B00221A704348FFF736FF84
:101E70007FE004214048FFF7E1FE0346002B78D1C4
:101E800040213D48FFF7C6FE0346012B71D1414B6F
:101E90001B78002B1ED1404B93F90030DAB2013A87
:101EA000D2B251B23C4A1170002B0CDD324B196991
:101EB0003A4B1B785A1CD0B2384A10701A46C9B235
:101EC000374B995455E02C4B5B682B4A23F48063C5
:101ED00053604EE02F4B1B78002B4AD02E4B93F9CA
:101EE0000030022B15DD244B19692C4B1B785A1C32
:101EF000D0B22A4A10701A46C9B2294B9954264BBF
:101F000093F90030DBB2013BDBB25AB2224B1A70BC
:101F10002FE0214B93F90030022B1BD1164B19698E
:101F20001E4B1B785A1CD0B21C4A10701A46C9B2FC
:101F30001B4B99541048FFF7A4FE0F48FFF758FEBB
:101F4000154B93F90030DBB2013BDBB25AB2124BB6
:101F50001A700EE0084B1969104B1B785A1CD0B24E
:101F60000E4A10701A46C9B20D4B9954094B002203
:101F70001A7000BF80BD00BF005800402E02002034
:101F8000240200203102002032020020E40100205F
:101F90002D0200202F0200202B02002033020020FF
:101FA0002802002080B483B000AF78607B681B6893
:101FB00043F400427B681A6000BF7B689B6903F0B2
:101FC0000203002BF9D17B681B6823F400427B6875
:101FD0001A6000BF0C37BD4680BC704780B485B026
:101FE00000AF0346FB71FB795B09FB73FB7903F0E0
:101FF0001F03BB73BB7B012202FA03F1044AFB7B84
:1020000042F8231000BF1437BD4680BC704700BFA4
:1020100000E100E090B585B000AF78600B46FB7042
:102020007B681B6823F060027B681A607B681B6812
:10203000FA780E49162000FB02F20A4403321278A5
:1020400052011A437B681A60FB78084A162101FB8B
:1020500003F3134402331B78002B09D17B681B6800
:1020600023F010027B681A6008E000BF64010020C2
:102070007B681B6843F010027B681A60FB78B64AE5
:10208000162101FB03F3134404331B881A467B68B3
:102090009A62FB78B04A162101FB03F3134406331E
:1020A0001B881A467B68DA62FB78AB4A162101FB73
:1020B00003F313441B7803F00103FB73FB78A64A78
:1020C000162101FB03F313441B785B08D8B20246C8
:1020D0007B68063253F82230FA7BD200032101FAE2
:1020E00002F2D2431146024619407B68063243F899
:1020F0002210FB78984A162101FB03F313441B7846
:102100005B08DCB222467B68063253F82230FA784C
:102110009149162000FB02F20A4408321278114657
:10212000FA7BD20001FA02F21146224619437B687B
:10213000063243F82210FB78874A162101FB03F38D
:10214000134408331B78002B4ED1FB78824A1621AA
:1021500001FB03F313441B7803F00103FB73FB78CB
:102160007D4A162101FB03F313441B785B08D8B2A8
:1021700002467B68063253F82230FA7BD2000432E2
:10218000072101FA02F2D2431146024619407B6848
:10219000063243F82210FB786F4A162101FB03F345
:1021A00013441B785B08DCB222467B68063253F886
:1021B0002230FA786849162000FB02F20A440932FC
:1021C00012781146FA7BD200043201FA02F211466B
:1021D000224619437B68063243F822107B685B6C09
:1021E00043F400427B685A64FB785B4A162101FB8A
:1021F00003F3134408331B78002B00F09280FB7824
:10220000554A162101FB03F313441B7803F0010325
:10221000FB73FB78504A162101FB03F313441B7830
:102220005B08D8B202467B68063253F82230FA7B4C
:10223000D2000232032101FA02F2D24311460246D1
:1022400019407B68063243F82210FB78424A162177
:1022500001FB03F313441B785B08DCB222467B6866
:10226000063253F82230FA783B49162000FB02F27E
:102270000A440B3212781146FA7BD200023201FA7C
:1022800002F21146224619437B68063243F82210B7
:10229000FB78314A162101FB03F313441B7803F04A
:1022A0000103FB73FB782C4A162101FB03F3134453
:1022B0001B785B08D8B202467B68063253F822309E
:1022C000FA7BD20004320F2101FA02F2D243114606
:1022D000024619407B68063243F82210FB781E4AFA
:1022E000162101FB03F313441B785B08DCB2224682
:1022F0007B68063253F82230FA781749162000FB23
:1023000002F20A440C3212781146FA7BD2000432EF
:1023100001FA02F21146224619437B68063243F85D
:102320002210FB780C4A162101FB03F313440D33F2
:102330001B78012B12D17B68DB68FA7806491620DE
:1023400000FB02F20A440E3212881A437B68DA60FC
:102350001B20FFF743FE0FE0640100207B68DB6871
:10236000FA782849162000FB02F20A440E3212883D
:10237000D2431A407B68DA60FB78224A162101FBBF
:1023800003F3134410331B78012B0DD17B68DB68FA
:10239000FA781C49162000FB02F20A441232128815
:1023A0001A437B68DA600DE07B68DB68FA781549D0
:1023B000162000FB02F20A4412321288D2431A405D
:1023C0007B68DA607B681B6AFA780E49162000FB8E
:1023D00002F20A440A3212785200D2431A407B6851
:1023E0001A627B681B6AFA780649162000FB02F223
:1023F0000A44143212881A437B681A6200BF1437E9
:10240000BD4690BD6401002080B483B000AF786009
:102410000B46FB707B681A69FB781340002B01D0D8
:10242000012300E0002318460C37BD4680BC7047EE
:1024300080B500AF04210B48FFF7E6FF0346002BF1
:102440000DD0084B1B69074A23F004031361054BA9
:102450009B6B9AB2044B1A80044B01221A7000BF86
:1024600080BD00BF002C0140340200203602002055
:1024700080B483B000AF78607B680E4A1A607B68D6
:1024800000225A717B6800221A717B684FF4165241
:102490009A607B680022DA607B68074A5A617B6831
:1024A000064A9A617B6808225A7700BF0C37BD46FE
:1024B00080BC7047004400403802002088020020A1
:1024C00080B582B000AF78607B681A687B685B7902
:1024D0001946104600F0A9F87B681A687B681B79DA
:1024E0001946104600F0B9F87B681A687B68DB680B
:1024F000DBB21946104600F0C2F87B681A687B68A8
:102500009B681946104600F01FF87B681A687B68C4
:102510001B7C1946104600F007FA7B681A687B6836
:102520005B7C1946104600F0FFF97B681B68184673
:1025300000F06CF87B681B68184600F0E5F900BFF6
:102540000837BD4680BD0000B0B588B000AF7860E8
:1025500039600120FEF7F6FD78617869FDF7FEFF2E
:1025600004460D463868FDF7F9FF4FF00002264B90
:10257000FEF76EF802460B4620462946FEF792F912
:1025800002460B4610461946FEF774FA03463B61B5
:102590003869FEF743FC03461846FEF775FB034611
:1025A00019463869FEF7BAFA0346FB60F9683869DC
:1025B000FEF7B4FA03461846FEF756FC0346FB61E5
:1025C0004FF08341F868FDF7D3FD0346184600F04D
:1025D00023FAB861BB690F2B04D90023BB61FB69E7
:1025E0000133FB617B689A68FB691B011A437B68B6
:1025F0009A607B689A68BB691A437B689A6000BFDF
:102600002037BD46B0BD00BF0000304080B483B06D
:1026100000AF78607B68DB6843F400527B68DA6067
:1026200000BF0C37BD4680BC704780B483B000AF9C
:1026300078600B46FB707B681B6923F440527B6813
:102640001A617B681B69FA7812031A437B681A6166
:1026500000BF0C37BD4680BC704780B483B000AF6C
:1026600078600B46FB707B68DB68FA7812031A43CC
:102670007B68DA6000BF0C37BD4680BC704780B411
:1026800083B000AF78600B46FB70FB78012B06D15E
:102690007B68DB6843F480627B68DA6008E0FB7883
:1026A000022B05D17B68DB6843F4C0627B68DA608B
:1026B00000BF0C37BD4680BC704780B483B000AF0C
:1026C00078600B46FB707B681A68FB781340002B20
:1026D00001D0012300E0002318460C37BD4680BC22
:1026E0007047000080B584B000AF78607B681B68DD
:1026F00040211846FFF7E1FF0346012B28D17B68F4
:102700005A697C4B1B78591CC8B27A490870194623
:102710001278794B5A547B685B691B78002B17D170
:102720007B681B68DA687B681B6822F08002DA60CD
:102730007B681B68DA687B681B6822F04002DA60FD
:102740007B681B68DA687B681B6822F00802DA6025
:102750007B681B6880211846FFF7AFFF0346012BFB
:1027600058D1664B1B780133DAB2644B1A707B6820
:102770005A69634B1B78591CC8B2614908701946E5
:102780001278604B5A547B685B691B78002B39D0F8
:102790007B681B79012B25D17B68DB68002B15D169
:1027A0007B685B69FB60FB681B881A467B681B685B
:1027B000C2F308025A607B685B695A1C7B685A61E5
:1027C0007B685B695A1C7B685A6123E07B685B69A4
:1027D0001A787B681B685A607B685B695A1C7B6847
:1027E0005A6117E07B681B79002B13D17B685B690A
:1027F0001A787B681B685A607B685B695A1C7B6827
:102800005A6107E07B681B68DA687B681B6822F006
:102810008002DA607B681B6820211846FFF74DFFB5
:102820000346012B61D17B685B7F002B51D07B6815
:102830001B79012B25D17B68DB68002B14D17B68C9
:102840001B685B689AB27B689B69C2F3080292B20C
:102850001A807B689B695A1C7B689A617B689B69BC
:102860005A1C7B689A6140E07B681B685A687B68E9
:102870009B69D2B21A707B689B695A1C7B689A610B
:1028800033E07B681B79002B2FD17B68DB68002B42
:1028900012D17B681B685A687B689B69D2B21A7038
:1028A0007B689B695A1C7B689A617B685B7F013BF4
:1028B000DAB27B685A7718E07B681B685A687B68D5
:1028C0009B69D2B21A707B689B695A1C7B689A61BB
:1028D0000BE07B685B7F002B07D17B681B68DA68A5
:1028E0007B681B6822F02002DA6000BF1037BD460B
:1028F00080BD00BF28030020D8020020A0030020D4
:102900007C0300202C03002080B483B000AF7860EB
:102910007B68DB6843F004027B68DA6000BF0C3739
:10292000BD4680BC7047000080B483B000AF7860C3
:102930000B46FB70FB78032B26D801A252F823F03C
:10294000512900085F2900086D2900087B2900082B
:102950007B685B6943F080027B685A6114E07B68A6
:102960005B6923F080027B685A610DE07B685B69DC
:1029700043F040027B685A6106E07B685B6923F0A4
:1029800040027B685A6100BF00BF0C37BD4680BC67
:10299000704700BF80B500AF0248FFF7A3FE00BF3D
:1029A00080BD00BF8003002080B500AFFEF77CFA39
:1029B000FEF70AFF01211348FFF700F81248FFF75E
:1029C00057FD1148FFF77CFD0021104800F058F832
:1029D00000210F48FFF71EFB01210D48FFF71AFBEE
:1029E00004210C48FEF780FC05210A48FEF77CFC18
:1029F00007210848FEF778FC06210648FEF774FC1C
:102A000000BF80BD0058004080030020003001401E
:102A1000002C01400000024080B586B000AF786015
:102A20007868FEF7FBF903463B617868FEF7F6F934
:102A300003461846FEF728F9034619467868FEF75C
:102A40006DF80346FB604FF07C51F868FEF7BEF965
:102A50000346002B02D00023FB7509E04FF07C51A8
:102A6000F868FEF7C7F90346002B01D00123FB7578
:102A7000FA7D3B69134418461837BD4680BD0000F7
:102A800080B582B000AF78600B46FB70FB78984A47
:102A900012F81330C3F30003DBB2002B06D07B68BF
:102AA0001B6843F400427B681A6005E07B681B6882
:102AB00023F400427B681A60FB788D4A12F81330C9
:102AC000C3F34003DBB2002B06D07B681B6843F4E2
:102AD00000727B681A6005E07B681B6823F4007253
:102AE0007B681A60FB78824A12F81330C3F38003C4
:102AF000DBB2002B06D07B685B6843F020027B686A
:102B00005A6005E07B685B6823F020027B685A60AE
:102B1000FB78774A12F81330C3F3C003DBB2002B03
:102B200006D07B685B6843F040027B685A6005E032
:102B30007B685B6823F040027B685A60FB786C4AD4
:102B400012F81330C3F30013DBB2002B06D07B68FE
:102B50005B6843F080027B685A6005E07B685B68D5
:102B600023F080027B685A60FB78614A12F81330C8
:102B7000C3F34013DBB2002B06D07B685B6843F0E5
:102B800002027B685A6005E07B685B6823F0020202
:102B90007B685A60FB78564A12F81330C3F38013EF
:102BA000DBB2002B06D07B685B6843F001027B68D8
:102BB0005A6005E07B685B6823F001027B685A601D
:102BC0007B681B6823F038027B681A607B681B688F
:102BD000FA78474931F81220C2F3C212D2B2D200B9
:102BE0001A437B681A60FB78414A5B0013445B78A8
:102BF000C3F38003DBB2002B06D07B681B6843F075
:102C000002027B681A6005E07B681B6823F0020201
:102C10007B681A60FB78364A5B0013445B78C3F329
:102C2000C003DBB2002B06D07B681B6843F00102B7
:102C30007B681A6005E07B681B6823F001027B68F3
:102C40001A60FB782A4A5B0013445B78C3F30013D5
:102C5000DBB2002B06D07B681B6843F004027B6864
:102C60001A6005E07B681B6823F004027B681A6029
:102C7000FB781F4A5B0013445B78C3F34013DBB25D
:102C8000002B06D07B681B6843F080027B681A60CB
:102C900005E07B681B6823F080027B681A60FB7884
:102CA000134A5B0013445B78C3F38013DBB2002B41
:102CB00006D07B681B6843F400627B681A6005E0FD
:102CC0007B681B6823F400627B681A60FB78084A03
:102CD0005B0013445B78C3F3C013DBB2002B09D055
:102CE0007B681B6843F480627B681A6008E000BF61
:102CF000BC0100207B681B6823F480627B681A603B
:102D00007B685B6843F004027B685A600121786845
:102D100000F031F800BF0837BD4680BD80B483B0F5
:102D200000AF786039607B683A68DA6000BF0C37C2
:102D3000BD4680BC704780B483B000AF78607B68CC
:102D4000DB68DBB218460C37BD4680BC704780B5E7
:102D500082B000AF78600B46FB7000BFFB7819466D
:102D6000786800F023F80346002BF7D000BF00BFBF
:102D70000837BD4680BD80B483B000AF78600B4695
:102D8000FB70FB78002B06D07B681B6843F0400289
:102D90007B681A6005E07B681B6823F040027B6853
:102DA0001A6000BF0C37BD4680BC704780B483B04A
:102DB00000AF78600B46FB707B689A68FB78134025
:102DC000002B01D0012300E0002318460C37BD463C
:102DD00080BC704780B582B000AF0023FB80134BEE
:102DE000DB68124A23F01003D36002211048FFF77A
:102DF000AEFFFA210E48FFF791FF01210C48FFF7C3
:102E0000A6FF0B48FFF797FF0346FB800221084807
:102E1000FFF79DFF054BDB68044A43F01003D360C6
:102E2000FB88DBB218460837BD4680BD000801406C
:102E30000030014080B582B000AFFFF7B5FD074B11
:102E4000DB68064A43F01003D360FFF7C3FF034675
:102E5000FB7100212D20FEF74FFDFEE70008014029
:102E60000D488546AFF300800C480D490D4A0023FC
:102E700002E0D458C4500433C4188C42F9D30A4A2F
:102E80000A4C002301E013600432A242FBD300F09D
:102E900011F8FFF7CFFFFEE70050002000000020F0
:102EA000C40100201C2F0008C4010020A40300203E
:102EB000FEE7000070B500260C4D0D4C641BA410FD
:102EC000A64209D100F01AF800260A4D0A4C641BEC
:102ED000A410A64205D170BD55F8043B98470136B1
:102EE000EEE755F8043B98470136F2E7142F000847
:102EF000142F0008142F0008182F0008F8B500BF81
:102F0000F8BC08BC9E467047F8B500BFF8BC08BCCA
:042F10009E46704722
:042F1400550100085B
:042F1800310100087B
:102F1C00000100000000000000000020020004007E
:102F2C0008001000400080000001000202000400B4
:102F3C000800100002030405060708090A0B0C0D13
:102F4C000E0F101000000000000000000000000038
:102F5C000000000000000000000000000000000065
:102F6C000000000000000000000000000000000055
:102F7C000000000000000000000000000000000045
:102F8C00000000000000000000000000E401002030
:102F9C001058004004000000000000000100000177
:102FAC0000020E012802002010580040040000000E
:102FBC00000000000100000100020F013802002097
:102FCC000444004008000000000000000000010064
:102FDC0000021001380200200444004000000000F0
:102FEC0000000000000000010002110000000000C1
:102FFC0003020001030203020002030203020002A7
:10300C0001000100010001000100010001000100AC
:10301C000100010001000100000200020002000298
:10302C000303030300020002010001000100010080
:10303C00010001000100010001000100010001007C
:10304C00010001000100010001000000000000006F
:10305C000008000028000000000000000300000031
:10306C000001000100080000280000000000000022
:10307C000300000000000003401F0A0000060000CF
:10308C000000020000000002010001000000401FCF
:10309C000A000100000003010400000000021000FF
:1030AC000000000000000000000000000000000014
:1030BC000000000000000000000000000000000004
:1030CC00000000000000000000000000801302104F
:0430DC0002100000DE
:0400000508002E6160
:00000001FF
