:020000040800F2
:1040000000500020656E0008B56E0008B56E00080F
:10401000B56E0008B56E0008B56E0008000000001F
:10402000000000000000000000000000B56E000865
:10403000B56E000800000000B56E00089D64000821
:10404000B56E0008B56E0008B56E0008B56E0008C4
:10405000B56E0008B56E0008B56E0008B56E0008B4
:10406000B56E0008B56E0008E9630008B56E00087B
:10407000B56E0008B56E0008B56E0008B56E000894
:10408000B56E0008B56E0008B56E0008B56E000884
:10409000FD5C0008B56E0008B56E0008B56E00083E
:1040A000B56E0008B56E0008B56E0008B56E000864
:1040B000B56E0008B56E0008B56E0008B56E000854
:1040C000B56E0008B56E0008B56E0008B56E000844
:1040D000B56E0008B56E0008F96A0008B56E0008F4
:1040E000B56E0008B56E000800000000B56E00084F
:1040F000B56E0008B56E0008B56E0008B56E000814
:10410000B56E0008B56E0008B56E0008B56E000803
:10411000B56E0008B56E0008B56E0008B56E0008F3
:10412000B56E0008B56E0008B56E0008B56E0008E3
:1041300010B5054C237833B9044B13B10448AFF3E1
:1041400000800123237010BD8C02002000000000BD
:104150009C9B000808B5034B1BB103490348AFF310
:10416000008008BD00000000900200209C9B000819
:10417000034613F8012B002AFBD1181A01387047A7
:104180004FF0FF0C1CEAD0521EBF1CEAD15392EA3A
:104190000C0F93EA0C0F6FD01A4480EA010C400216
:1041A00018BF5FEA41211ED04FF0006343EA501070
:1041B00043EA5111A0FB01310CF00040B1F5000FB2
:1041C0003EBF490041EAD3715B0040EA010062F161
:1041D0007F02FD2A1DD8B3F1004F40EBC25008BF4B
:1041E00020F00100704790F0000F0CF0004C08BF69
:1041F00049024CEA502040EA51207F3AC2BFD2F136
:10420000FF0340EAC250704740F400004FF0000343
:10421000013A5DDC12F1190FDCBF00F0004070477D
:10422000C2F10002410021FA02F1C2F1200200FABB
:1042300002FC5FEA310040F1000053EA4C0308BF82
:1042400020EADC70704792F0000F00F0004C02BFD3
:10425000400010F4000F013AF9D040EA0C0093F04E
:10426000000F01F0004C02BF490011F4000F013BA8
:10427000F9D041EA0C018FE70CEAD15392EA0C0F16
:1042800018BF93EA0C0F0AD030F0004C18BF31F081
:10429000004CD8D180EA010000F00040704790F057
:1042A000000F17BF90F0004F084691F0000F91F0FB
:1042B000004F14D092EA0C0F01D142020FD193EAC1
:1042C0000C0F03D14B0218BF084608D180EA010049
:1042D00000F0004040F0FE4040F40000704740F025
:1042E000FE4040F44000704781F0004102E000BF12
:1042F00083F0004330B54FEA41044FEA430594EAA6
:10430000050F08BF90EA020F1FBF54EA000C55EAE0
:10431000020C7FEA645C7FEA655C00F0E2804FEAB1
:104320005454D4EB5555B8BF6D420CDD2C4480EA93
:10433000020281EA030382EA000083EA010180EAC3
:10434000020281EA0303362D88BF30BD11F0004F11
:104350004FEA01314FF4801C4CEA113102D0404247
:1043600061EB410113F0004F4FEA03334CEA133382
:1043700002D0524263EB430394EA050F00F0A7809A
:10438000A4F10104D5F1200E0DDB02FA0EFC22FA95
:1043900005F2801841F1000103FA0EF2801843FA89
:1043A00005F359410EE0A5F120050EF1200E012A7A
:1043B00003FA0EFC28BF4CF0020C43FA05F3C018B8
:1043C00051EBE37101F0004507D54FF0000EDCF131
:1043D000000C7EEB00006EEB0101B1F5801F1BD3DA
:1043E000B1F5001F0CD349085FEA30004FEA3C0CDE
:1043F00004F101044FEA445212F5800F80F09A80D4
:10440000BCF1004F08BF5FEA500C50F1000041EBD7
:10441000045141EA050130BD5FEA4C0C404141EBDB
:104420000101013C28BFB1F5801FE9D291F0000FD6
:1044300004BF01460020B1FA81F308BF2033A3F185
:104440000B03B3F120020CDA0C3208DD02F1140C7C
:10445000C2F10C0201FA0CF021FA02F10CE002F1B7
:104460001402D8BFC2F1200C01FA02F120FA0CFCB0
:10447000DCBF41EA0C019040E41AA2BF01EB0451F9
:10448000294330BD6FEA04041F3C1CDA0C340EDCF7
:1044900004F11404C4F1200220FA04F001FA02F33A
:1044A00040EA030021FA04F345EA030130BDC4F1F8
:1044B0000C04C4F1200220FA02F001FA04F340EAED
:1044C0000300294630BD21FA04F0294630BD94F09E
:1044D000000F83F4801306BF81F480110134013D85
:1044E0004EE77FEA645C18BF7FEA655C29D094EAF6
:1044F000050F08BF90EA020F05D054EA000C04BF74
:104500001946104630BD91EA030F1EBF002100205E
:1045100030BD5FEA545C05D14000494128BF41F0FD
:10452000004130BD14F580043CBF01F5801130BD61
:1045300001F0004545F0FE4141F470014FF00000EC
:1045400030BD7FEA645C1ABF194610467FEA655C9D
:104550001CBF0B46024650EA013406BF52EA03353F
:1045600091EA030F41F4002130BD00BF90F0000F2D
:1045700004BF0021704730B54FF4806404F1320469
:104580004FF000054FF0000150E700BF90F0000F22
:1045900004BF0021704730B54FF4806404F1320449
:1045A00010F0004548BF40424FF000013EE700BF19
:1045B00042004FEAE2014FEA31014FEA02701FBFA9
:1045C00012F07F4393F07F4F81F06051704732F0DB
:1045D0007F4208BF704793F07F4F04BF41F4002132
:1045E000704730B54FF4607401F0004521F0004190
:1045F0001CE700BF50EA010208BF704730B54FF01A
:1046000000050AE050EA010208BF704730B511F01A
:10461000004502D5404261EB41014FF4806404F152
:1046200032045FEA915C3FF4D8AE4FF003025FEAD8
:10463000DC0C18BF03325FEADC0C18BF033202EB5C
:10464000DC02C2F1200300FA03FC20FA02F001FAB6
:1046500003FE40EA0E0021FA02F11444BDE600BF59
:1046600070B54FF0FF0C4CF4E06C1CEA11541DBF08
:104670001CEA135594EA0C0F95EA0C0F00F0DEF8D3
:104680002C4481EA030621EA4C5123EA4C5350EAB8
:10469000013518BF52EA033541F4801143F4801309
:1046A00038D0A0FB02CE4FF00005E1FB02E506F09A
:1046B0000042E0FB03E54FF00006E1FB03569CF0EF
:1046C000000F18BF4EF0010EA4F1FF04B6F5007FF5
:1046D00064F5407404D25FEA4E0E6D4146EB060667
:1046E00042EAC62141EA55514FEAC52040EA5E50F0
:1046F0004FEACE2EB4F1FD0C88BFBCF5E06F1ED89A
:10470000BEF1004F08BF5FEA500E50F1000041EBD0
:10471000045170BD06F0004646EA010140EA02007D
:1047200081EA0301B4EB5C04C2BFD4EB0C0541EA9F
:10473000045170BD41F480114FF0000E013C00F3B4
:10474000AB8014F1360FDEBF002001F0004170BDD8
:10475000C4F10004203C35DA0C341BDC04F11404F1
:10476000C4F1200500FA05F320FA04F001FA05F27D
:1047700040EA020001F0004221F0004110EBD3704A
:1047800021FA04F642EB06015EEA430E08BF20EA76
:10479000D37070BDC4F10C04C4F1200500FA04F319
:1047A00020FA05F001FA04F240EA020001F00041AB
:1047B00010EBD37041F100015EEA430E08BF20EA1E
:1047C000D37070BDC4F1200500FA05F24EEA020E66
:1047D00020FA04F301FA05F243EA020321FA04F095
:1047E00001F0004121FA04F220EA020000EBD3704C
:1047F0005EEA430E08BF20EAD37070BD94F0000F4C
:104800000FD101F00046400041EB010111F4801F7F
:1048100008BF013CF7D041EA060195F0000F18BF30
:10482000704703F00046520043EB030313F4801F6C
:1048300008BF013DF7D043EA0603704794EA0C0F26
:104840000CEA135518BF95EA0C0F0CD050EA41063C
:1048500018BF52EA4306D1D181EA030101F00041B9
:104860004FF0000070BD50EA410606BF10461946E1
:1048700052EA430619D094EA0C0F02D150EA0136ED
:1048800013D195EA0C0F05D152EA03361CBF10462E
:1048900019460AD181EA030101F0004141F0FE41CD
:1048A00041F470014FF0000070BD41F0FE4141F451
:1048B000780170BD70B54FF0FF0C4CF4E06C1CEA51
:1048C00011541DBF1CEA135594EA0C0F95EA0C0F06
:1048D00000F0A7F8A4EB050481EA030E52EA0335C1
:1048E0004FEA013100F088804FEA03334FF08055E2
:1048F00045EA131343EA12634FEA022245EA11150F
:1049000045EA10654FEA00260EF000419D4208BFBF
:10491000964244F1FD0404F5407402D25B084FEA6C
:104920003202B61A65EB03055B084FEA32024FF418
:1049300080104FF4002CB6EB020E75EB030E22BF75
:10494000B61A754640EA0C005B084FEA3202B6EB35
:10495000020E75EB030E22BFB61A754640EA5C00E4
:104960005B084FEA3202B6EB020E75EB030E22BF74
:10497000B61A754640EA9C005B084FEA3202B6EB75
:10498000020E75EB030E22BFB61A754640EADC0034
:1049900055EA060E18D04FEA051545EA16754FEA96
:1049A00006164FEAC30343EA52734FEAC2025FEAB4
:1049B0001C1CC0D111F4801F0BD141EA00014FF043
:1049C00000004FF0004CB6E711F4801F04BF014314
:1049D0000020B4F1FD0C88BFBCF5E06F3FF6AFAE30
:1049E000B5EB030C04BFB6EB020C5FEA500C50F1C0
:1049F000000041EB045170BD0EF0004E4EEA113143
:104A000014EB5C04C2BFD4EB0C0541EA045170BD49
:104A100041F480114FF0000E013C90E645EA060E8D
:104A20008DE60CEA135594EA0C0F08BF95EA0C0FBB
:104A30003FF43BAF94EA0C0F0AD150EA01347FF403
:104A400034AF95EA0C0F7FF425AF104619462CE7DA
:104A500095EA0C0F06D152EA03353FF4FDAE10463D
:104A6000194622E750EA410618BF52EA43067FF48E
:104A7000C5AE50EA41047FF40DAF52EA43057FF41E
:104A8000EBAE12E74FF0FF3C06E000BF4FF0010C29
:104A900002E000BF4FF0010C4DF804CD4FEA410C8D
:104AA0007FEA6C5C4FEA430C18BF7FEA6C5C1BD05A
:104AB00001B050EA410C0CBF52EA430C91EA030FDB
:104AC00002BF90EA020F0020704710F1000F91EA38
:104AD000030F58BF994208BF90422CBFD8176FEA06
:104AE000E37040F0010070474FEA410C7FEA6C5CD4
:104AF00002D150EA013C07D14FEA430C7FEA6C5CDB
:104B0000D6D152EA033CD3D05DF8040B704700BF06
:104B10008446104662468C461946634600E000BF54
:104B200001B5FFF7B7FF002848BF10F1000F01BD26
:104B30004DF808EDFFF7F4FF0CBF012000205DF8F1
:104B400008FB00BF4DF808EDFFF7EAFF34BF012076
:104B500000205DF808FB00BF4DF808EDFFF7E0FF0F
:104B600094BF012000205DF808FB00BF4DF808ED60
:104B7000FFF7CEFF94BF012000205DF808FB00BFC7
:104B80004DF808EDFFF7C4FF34BF012000205DF8A9
:104B900008FB00BF4FEA410C7FEA6C5C02D150EA8F
:104BA000013C0AD14FEA430C7FEA6C5C02D152EA25
:104BB000033C02D14FF0000070474FF001007047F6
:104BC0004FEA410212F5001215D211D56FF4787335
:104BD000B3EB625212D94FEAC12343F0004343EAD8
:104BE000505311F0004F23FA02F018BF40427047B3
:104BF0004FF00000704750EA013005D111F000403D
:104C000008BF6FF0004070474FF00000704700BFD2
:104C10004FEA4102B2F1E04324BFB3F5001CDCF1DE
:104C2000FE5C0DD901F0004C4FEAC0024CEA507016
:104C3000B2F1004F40EB830008BF20F00100704745
:104C400011F0804F21D113F13872BCBF01F0004048
:104C5000704741F480114FEA5252C2F11802C2F17A
:104C6000200C10FA0CF320FA02F018BF40F00100FB
:104C70004FEAC1234FEAD32303FA0CFC40EA0C00AD
:104C800023FA02F34FEA4303CCE77FEA625307D1EA
:104C900050EA01331EBF4FF0FE4040F44000704721
:104CA00001F0004040F0FE4040F40000704700BFBB
:104CB00080F0004002E000BF81F0004142001FBFD1
:104CC0005FEA410392EA030F7FEA226C7FEA236CDA
:104CD0006AD04FEA1262D2EB1363C1BFD2184140CF
:104CE00048404140B8BF5B42192B88BF704710F065
:104CF000004F40F4000020F07F4018BF404211F008
:104D0000004F41F4000121F07F4118BF494292EA6F
:104D1000030F3FD0A2F1010241FA03FC10EB0C009B
:104D2000C3F1200301FA03F100F0004302D5494228
:104D300060EB4000B0F5000F13D3B0F1807F06D3D5
:104D400040084FEA310102F10102FE2A51D2B1F1CD
:104D5000004F40EBC25008BF20F0010040EA0300C2
:104D60007047490040EB0000013A28BFB0F5000F42
:104D7000EDD2B0FA80FCACF1080CB2EB0C0200FAF8
:104D80000CF0AABF00EBC25052421843BCBFD04047
:104D90001843704792F0000F81F4000106BF80F4C1
:104DA00000000132013BB5E74FEA41037FEA226C84
:104DB00018BF7FEA236C21D092EA030F04D092F04F
:104DC000000F08BF0846704790EA010F1CBF002083
:104DD000704712F07F4F04D1400028BF40F00040E0
:104DE000704712F100723CBF00F50000704700F000
:104DF000004343F0FE4040F4000070477FEA226227
:104E000016BF08467FEA23630146420206BF5FEAF7
:104E1000412390EA010F40F4800070474FF00003F7
:104E200004E000BF10F0004348BF40425FEA000CBE
:104E300008BF704743F0964301464FF000001CE066
:104E400050EA010208BF70474FF000030AE000BFBC
:104E500050EA010208BF704711F0004302D54042FA
:104E600061EB41015FEA010C02BF8446014600206C
:104E700043F0B64308BFA3F18053A3F50003BCFA87
:104E80008CF2083AA3EBC25310DB01FA02FC634434
:104E900000FA02FCC2F12002BCF1004F20FA02F23B
:104EA00043EB020008BF20F00100704702F120022E
:104EB00001FA02FCC2F1200250EA4C0021FA02F28F
:104EC00043EB020008BF20EADC7070474FF0FF3C64
:104ED00006E000BF4FF0010C02E000BF4FF0010CF4
:104EE0004DF804CD4FEA40024FEA41037FEA226CBD
:104EF00018BF7FEA236C11D001B052EA530C18BFDF
:104F000090EA010F58BFB2EB030088BFC81738BF43
:104F10006FEAE17018BF40F0010070477FEA226C31
:104F200002D15FEA402C05D17FEA236CE4D15FEA2D
:104F3000412CE1D05DF8040B704700BF8446084661
:104F40006146FFE70FB5FFF7C9FF002848BF10F122
:104F5000000F0FBD4DF808EDFFF7F4FF0CBF012067
:104F600000205DF808FB00BF4DF808EDFFF7EAFFF1
:104F700034BF012000205DF808FB00BF4DF808EDAC
:104F8000FFF7E0FF94BF012000205DF808FB00BFA1
:104F90004DF808EDFFF7D2FF94BF012000205DF827
:104FA00008FB00BF4DF808EDFFF7C8FF34BF012034
:104FB00000205DF808FB00BF4FEA4002B2F1FE4F4F
:104FC0000FD34FF09E03B3EB12620DD94FEA0023CB
:104FD00043F0004310F0004F23FA02F018BF4042A4
:104FE00070474FF00000704712F1610F01D142028B
:104FF00005D110F0004008BF6FF0004070474FF03F
:105000000000704742000ED2B2F1FE4F0BD34FF0BA
:105010009E03B3EB126209D44FEA002343F000432E
:1050200023FA02F070474FF00000704712F1610F51
:1050300001D1420202D14FF0FF3070474FF0000023
:10504000704700BF80B483B000AF78607B681B6896
:1050500023F002027B681A6000BF7B685B6803F084
:105060000203002BF9D100BF00BF0C37BD4680BC46
:10507000704780B483B000AF78607B681B6823F012
:1050800001027B681A6000BF7B685B6803F0010364
:10509000002BF9D100BF00BF0C37BD4680BC704764
:1050A00080B483B000AF78600B46FB70FB78012BB7
:1050B00006D17B685B6943F400427B685A6108E073
:1050C000FB78002B05D17B685B6923F400427B6889
:1050D0005A6100BF0C37BD4680BC704780B483B0B6
:1050E00000AF78600B46FB70FB78012B06D17B6824
:1050F0001B6843F010027B681A6008E0FB78002B05
:1051000005D17B681B6823F010027B681A6000BF22
:105110000C37BD4680BC704780B483B000AF786068
:105120007B689B6803F08063002B01D0002311E0B3
:105130007B689B6803F00063002B01D0012309E02A
:105140007B689B6803F08053002B01D0022301E0B1
:105150004FF0FF3318460C37BD4680BC704780B413
:1051600083B000AF78600B46FB70FB787A68183329
:105170001B0113441A68FB7842F001027968183366
:105180001B010B441A6000BF0C37BD4680BC704742
:1051900080B483B000AF78607B68DB6803F0030302
:1051A000002B01D0002308E07B681B6903F0030398
:1051B000002B01D0012300E0FF2318460C37BD4629
:1051C00080BC704780B483B000AF78600B46FB7042
:1051D000FB787A681B331B0113441B685B08DBB246
:1051E00003F00103DAB2034B5A7000BF0C37BD461F
:1051F00080BC7047BC02002080B483B000AF7860F0
:105200000B46FB70FB787A681B331B0113441B6849
:105210005B08DBB203F00203DAB2034B1A7000BF83
:105220000C37BD4680BC7047BC02002080B483B000
:1052300000AF78600B46FB700F4B1B78002B09D139
:10524000FB787A681B331B0113441B685B0D0A4A09
:1052500093600CE0084B1B78012B08D1FB787A682F
:105260001B331B0113441B68DB08034A936000BF18
:105270000C37BD4680BC7047BC02002080B483B0B0
:1052800000AF78600B46FB70FB787A681B331B011C
:10529000134404331B68DBB203F00F03DAB2034B91
:1052A0001A7100BF0C37BD4680BC7047BC0200209D
:1052B00080B483B000AF78600B46FB70FB787A68EF
:1052C0001B331B01134404331B681B0C9AB2034BA2
:1052D0005A8000BF0C37BD4680BC7047BC0200201E
:1052E00080B483B000AF78600B46FB70FB787A68BF
:1052F0001B331B01134404331B681B0ADAB2034B34
:105300005A7100BF0C37BD4680BC7047BC020020FC
:1053100080B483B000AF78600B46FB70FB787A688E
:105320001B01134403F5DC731B68084AD360FB7848
:105330007A681B01134403F5DE731B68034A13618B
:1053400000BF0C37BD4680BC704700BFBC020020C8
:1053500080B483B000AF78600B46FB70FB787A684E
:1053600002339B0013445A68FB7842F020027968AC
:1053700002339B000B445A6000BF0C37BD4680BC13
:105380007047000080B582B000AF78607B68002273
:105390001A707B6800221A727B6803225A727B683B
:1053A00002225A707B6805229A707B6802221A7466
:1053B0007B681B7C79685A1C13465B001344DB0036
:1053C0000B44043327221A807B681B7C19467A68B9
:1053D0000B465B000B44DB0013441E3327221A806C
:1053E0007B681B7C19467A680B465B000B44DB002C
:1053F0001344143300221A707B681B7C19467A68A8
:105400000B465B000B44DB001344153300221A707B
:105410007B681B7C19467A680B465B000B44DB00FB
:105420001344163300221A707B681B7C19467A6875
:105430000B465B000B44DB001344173300221A7049
:105440007B681B7C19467A680B465B000B44DB00CB
:105450001344183300221A707B681B7C19467A6843
:105460000B465B000B44DB00134424334FF07E42B9
:105470001A607B681B7C19467A680B465B000B44FC
:10548000DB00134428334FF07E421A60044905487C
:1054900000F00AF800BF18460837BD4680BD00BFBF
:1054A000D00200200064004080B582B000AF786078
:1054B0003960786800F090FA204B1B681F4A23F48B
:1054C000803313601E49786800F0A2FA3B685B7A6B
:1054D0001946786800F04DFA3B681B7A19467868DF
:1054E000FFF7DEFD3B681B7819467868FFF7F6FD8D
:1054F0003B685B781946786800F032F83B689B7827
:105500001946786800F02CF83B68197C3B681B7CD6
:105510001A4613465B001344DB0010333A68134409
:1055200004331A46786800F069F8786800F00AF8E1
:1055300000BF18460837BD4680BD00BF006400406C
:1055400090D0030080B582B000AF78607868FFF734
:1055500090FD7868FFF776FD00BF0837BD4680BD37
:1055600080B582B000AF78600B46FB70FB78032BF0
:1055700009D17B685B6943F001027B685A611320A3
:1055800000F05AFF36E0FB78022B06D17B685B699E
:1055900023F001027B685A612CE0FB78052B09D1CE
:1055A0007B685B6943F002027B685A61142000F05B
:1055B00043FF1FE0FB78042B06D17B685B6923F077
:1055C00002027B685A6115E0FB78072B09D17B68E2
:1055D0005B6943F010027B685A61152000F02CFFD4
:1055E00008E0FB78062B05D17B685B6923F010028D
:1055F0007B685A6100BF0837BD4680BD80B485B066
:1056000000AFF8600B467A60FB72FB68D3F800329B
:1056100043F00102FB68C3F800227B685B78012B32
:105620000BD1FB68D3F80432FA7A012101FA02F2B5
:105630001A43FB68C3F804220FE07B685B78002BF9
:105640000BD1FB68D3F80432FA7A012101FA02F295
:10565000D2431A40FB68C3F804227B681B78012BF5
:105660000BD1FB68D3F80C32FA7A012101FA02F26D
:105670001A43FB68C3F80C220EE07B681B78012BF1
:105680000AD1FB68D3F80C32FA7A012101FA02F24E
:105690001A43FB68C3F80C227B689B78012B0BD163
:1056A000FB68D3F81432FA7A012101FA02F21A43A4
:1056B000FB68C3F814220FE07B689B78002B0BD1AA
:1056C000FB68D3F81432FA7A012101FA02F2D243CC
:1056D0001A40FB68C3F814227B681B78012B58D151
:1056E0007B685B78012B54D17B68DB78002B25D15C
:1056F0007B689B685A057B68DB789B0042EA030164
:105700007B681B795B00FA7A52001943FB68903280
:1057100043F822107B68DB685A057B68DB789B00C6
:1057200042EA03017B681B795B00FA7A520001327E
:105730001943FB68903243F82210FFE07B68DB7866
:10574000012B40F0FB807B689B68DA007B68DB788C
:105750009B0042EA03017B681B795B00FA7A5200E6
:105760001943FB68903243F822107B68DB68DA004B
:105770007B68DB789B0042EA03017B681B795B0056
:10578000FA7A520001321943FB68903243F8221032
:10579000D4E07B681B78012B56D17B685B78002BAB
:1057A00052D17B68DB78002B24D17B689B685A053B
:1057B0007B68DB789B0042EA03017B681B795B0016
:1057C000FA7A52001943FB68903243F822107B6842
:1057D0001A697B68DB789B0042EA03017B681B79CE
:1057E0005B00FA7A520001321943FB68903243F8A9
:1057F0002210A5E07B68DB78012B40F0A1807B685C
:105800009B68DA007B68DB789B0042EA03017B68D7
:105810001B795B00FA7A52001943FB68903243F817
:1058200022107B681A697B68DB789B0042EA0301DF
:105830007B681B795B00FA7A520001321943FB68DE
:10584000903243F822107BE07B681B78002B41D11B
:105850007B685B78012B3DD17B685B895A057B684F
:10586000DB781B051A437B681B79DB041A437B68D2
:105870001B8959017B68DB781B0119437B681B7905
:10588000DB000B4342EA0301FB7A5A00FB689032CB
:1058900043F822107B68DB895A057B68DB781B059F
:1058A0001A437B681B79DB041A437B689B89590187
:1058B0007B68DB781B0119437B681B79DB000B439A
:1058C00042EA0301FB7A5B005A1CFB68903243F802
:1058D000221036E07B681B78002B32D17B685B7826
:1058E000002B2ED17B681A697B681B895B011A43E8
:1058F0007B68DB781B0142EA03017B681B79DB00D4
:10590000FA7A52001943FB68903243F822107B6800
:105910005A697B685B895B011A437B68DB781B01F2
:1059200042EA03017B681B79DB00FA7A52000132FC
:105930001943FB68903243F8221002E000BF00E0F8
:1059400000BFFB68D3F81C32FA7A012101FA02F297
:105950001A43FB68C3F81C22FB68D3F8003223F01B
:105960000102FB68C3F8002200BF1437BD4680BCAB
:10597000704780B483B000AF78600B46FB70FB7853
:10598000032B06D17B68DB6943F080427B68DA61D8
:105990001CE0FB78022B06D17B68DB6923F0804298
:1059A0007B68DA6112E0FB78012B06D17B68DB694A
:1059B00043F000427B68DA6108E0FB78002B05D1F8
:1059C0007B68DB6923F000427B68DA6100BF0C373B
:1059D000BD4680BC7047000080B582B000AF7860E3
:1059E0007868FFF72FFB094B1B68084A43F0010357
:1059F000136000BF7B685B6803F00103002BF9D0E4
:105A000000BF00BF0837BD4680BD00BF0064004036
:105A100080B584B000AF78603960012000F0DEFA14
:105A200002463B681B01B2FBF3F39BB2013BFB81D7
:105A30007B680022DA617B68DA69FB891A437B683C
:105A4000DA617B68DB6943F440227B68DA617B685A
:105A5000DB6943F480127B68DA617B68DA697B6812
:105A6000DA6100BF1037BD4680BD000080B586B04A
:105A700000AFF860B96011461A460B46FB71134639
:105A8000BB71144A97F820301370124ABB795370D7
:105A9000104A7B6A53600F4AFB7913720023FB752F
:105AA0000BE0BB685A1CBA60FA7D1978094B1344A5
:105AB0000A461A73FB7D0133FB75FA7DFB799A4226
:105AC000EFD30449F86800F007F800BF184618370C
:105AD000BD4680BDA802002080B584B000AF7860CC
:105AE000396000BF7868FFF717FB0346FB7397F92F
:105AF0000F30B3F1FF3FF5D097F90F30B3F1FF3F0F
:105B000000F0B58097F90F307A6818331B01134401
:105B100000221A6097F90F307A6818331B0113447A
:105B2000043300221A603B681B78002B22D197F9BE
:105B30000F307A6818331B0113441A6897F90F3035
:105B400022F00402796818331B010B441A6097F99C
:105B50000F307A6818331B01134419683B685B687F
:105B60005A0597F90F300A43796818331B010B4423
:105B70001A6025E03B681B78012B21D197F90F3083
:105B80007A6818331B0113441A6897F90F3042F0F2
:105B90000402796818331B010B441A6097F90F301F
:105BA0007A6818331B01134419683B685B68DA0094
:105BB00097F90F300A43796818331B010B441A60B8
:105BC0003B685B78002B10D197F90F307A68183357
:105BD0001B0113441A6897F90F3022F0020279680A
:105BE00018331B010B441A6013E03B685B78012BF0
:105BF0000FD197F90F307A6818331B0113441A68D4
:105C000097F90F3042F00202796818331B010B44F8
:105C10001A6097F90F307A6818331B011344043364
:105C20001A683B681B7A194697F90F300A4379685E
:105C300018331B010B4404331A6097F90F303A688C
:105C4000D26879681B010B4403F5C4731A6097F995
:105C50000F303A68126979681B010B4403F5C6736B
:105C60001A60FB7B19467868FFF779FA00E0FF239A
:105C700018461037BD4680BD80B582B000AF786051
:105C80000B46FB70FB7819467868FFF79BFAFB78A8
:105C900019467868FFF7B0FAFB7819467868FFF77D
:105CA000C5FAFB7819467868FFF7E8FAFB781946D9
:105CB0007868FFF7FDFAFB7819467868FFF710FB64
:105CC000FB7819467868FFF723FBFB78194678685C
:105CD000FFF73EFB012318460837BD4680BD000094
:105CE00080B483B000AF7860034A7B68136000BF64
:105CF0000C37BD4680BC70473404002080B582B0AC
:105D000000AF0023FB710B48FFF742FA0346002B5C
:105D10000BD100210748FFF7AFFF074B1B68002B93
:105D200003D0054B1B680548984700BF0837BD46A0
:105D300080BD00BF0064004034040020BC0200208D
:105D400080B500AF174B1B68DB78184600F0C2F82F
:105D5000144B1B681B79184600F0D6F8114B1B68D2
:105D60005B79184600F0EAF80E4B1B689A780D4BE9
:105D70001B685B781946104600F082F8094B1B68D7
:105D80001B78184600F012F8012000F015F941F6D2
:105D90001D2000F0EDF8044800F0FCF800F0DAF9FE
:105DA00000BF80BD080000200000420280B485B022
:105DB00000AF0346FB710023FB73FB79012B1FD15E
:105DC0002E4B1B682D4A43F48033136000BF2B4BCE
:105DD0001B6803F40033002BF9D0284B5B68274A7B
:105DE00023F003035360254B5B68244A43F001030F
:105DF0005360224B1B68214A23F00103136037E0F4
:105E0000FB79002B17D11D4B1B681C4A43F0010383
:105E1000136000BF194B1B6803F00203002BF9D07D
:105E2000164B5B68154A23F003035360134B134A68
:105E30005B6853601CE0FB79022B19D10F4B1B6888
:105E40000E4A43F08073136000BF0C4B1B6803F0D5
:105E50000073002BF9D0094B5B68084A43F002033A
:105E6000536000BF054B5B6803F00C03082BF9D1AE
:105E7000FB7B18461437BD4680BC704700100240BB
:105E800080B483B000AF03460A46FB711346BB7172
:105E90000F4B5B680E4A23F4701353600C4B5A6827
:105EA000BB799B040A4913434B60094B5B68084A62
:105EB00023F480335360064B5A68FB79044913433B
:105EC0004B60012318460C37BD4680BC704700BFAD
:105ED0000010024080B483B000AF0346FB71094B51
:105EE0005B68084A23F0F0035360064B5A68FB795D
:105EF0001B01044913434B6000BF0C37BD4680BCF7
:105F0000704700BF0010024080B483B000AF03466A
:105F1000FB71094B5B68084A23F4E0635360064B4E
:105F20005A68FB791B02044913434B6000BF0C37CE
:105F3000BD4680BC704700BF0010024080B483B0F3
:105F400000AF0346FB71094B5B68084A23F4F0433A
:105F50005360064B5A68FB79DB02044913434B60DC
:105F600000BF0C37BD4680BC704700BF0010024028
:105F700080B483B000AF7860054B9A6904497B68B0
:105F800013438B6100BF0C37BD4680BC704700BF18
:105F90000010024080B483B000AF7860054BDA692E
:105FA00004497B681343CB6100BF0C37BD4680BCFE
:105FB000704700BF0010024080B483B000AF78602B
:105FC000054B5A6904497B6813434B6100BF0C378A
:105FD000BD4680BC704700BF0010024080B588B04D
:105FE00000AF0346FB71364B5B689B08DBB203F0E6
:105FF0000303FB74FB7C002B02D1324BFB6111E0ED
:10600000FB7C012B02D12F4BFB610BE0FB7C022BB5
:1060100003D100F05DF8F86104E0FB7C032B01D1B3
:106020000123FB61264B5B681B0903F00F03FB6038
:10603000FB68072B02D80123BB6105E0FB68083B26
:10604000214A32F81330BB61FB79012B14D11C4B70
:106050005B689B0A002B14BF01230023DBB2FB60AB
:10606000FB68032B02D801237B6105E0FB68043B3E
:10607000164A32F813307B61FB79022B14D1104B96
:106080005B685B0B002B14BF01230023DBB2FB60BA
:10609000FB68032B02D801237B6105E0FB68043B0E
:1060A0000A4A32F813307B61FA69BB69B2FBF3F23A
:1060B0007B69B2FBF3F318462037BD4680BD00BFB5
:1060C0000010024000127A000C0000201C0000208A
:1060D00080B485B000AF1B4B5B681B0CDBB203F0D8
:1060E0000103FB72174B5B689B0C03F00F037B6093
:1060F000144B5B685B0C03F001033B600023FB6007
:10610000FB7A002B09D1104A7B6813441B781A468E
:106110000E4B02FB03F3FB600EE0FB7A012B0BD16D
:106120003B6801330A4AB2FBF3F307497A680A4431
:10613000127802FB03F3FB60FB6818461437BD4678
:1061400080BC7047001002402400002000093D0080
:1061500000127A0080B400AF084B5B6A074A43F034
:106160000103536200BF054B5B6A03F00203002B7F
:10617000F9D000BF00BFBD4680BC70470010024090
:1061800080B483B000AF0346FB71FB791B09DBB21F
:1061900003F00303DBB218460C37BD4680BC7047E2
:1061A00080B483B000AF0346FB71FB7903F00F03AB
:1061B000DBB218460C37BD4680BC704780B582B054
:1061C00000AF0223FB710DE0FA7913465B00134424
:1061D000084A1A44FB791146184600F00DF8FB797D
:1061E0000133FB71FB79302BEED900BF00BF0837BC
:1061F000BD4680BD3400002080B582B000AF0346AC
:106200003960FB713B6819783B685A783B689B782A
:10621000F87900F005F800BF0837BD4680BD0000E2
:1062200090B585B000AF0446084611461A4623468D
:10623000FB710346BB710B467B7113463B71FB79C7
:106240001846FFF7ADFF03461A463C4B1A70FB7920
:106250001846FFF795FF03469B0203F1804303F5C1
:106260008433FB607B79022B1BD13B79012B0AD154
:10627000FB68DB68314A1278114601228A401A43D2
:10628000FB68DA600DE03B79002B0AD1FB68DB6824
:106290002A4A1278114601228A40D2431A40FB68EA
:1062A000DA60264B1B78072B1ED8FB681B68234A35
:1062B000127892000F2101FA02F2D2431A40FB68D1
:1062C0001A60FB681B68B9791C4A127892009140E9
:1062D00078791A4A12789200023200FA02F20A43DE
:1062E0001A43FB681A6024E0144B1B7803F0070381
:1062F000DAB2124B1A70FB685B68104A127892008F
:106300000F2101FA02F2D2431A40FB685A60FB687F
:106310005B68B979094A1278920091407879074A06
:1063200012789200023200FA02F20A431A43FB6822
:106330005A6000BF1437BD4690BD00BF390400202D
:1063400080B584B000AF03460A46FB711346BB71AB
:10635000FB791846FFF714FF03469B0203F18043C5
:1063600003F58433FB60BB79002B10D0012B1DD1CA
:10637000FB791846FFF714FF03461A4601239340A2
:10638000DA43FB68DB681A40FB68DA600EE0FB79F1
:106390001846FFF705FF03461A46012303FA02F2E7
:1063A000FB68DB681A43FB68DA6000BF00BF103788
:1063B000BD4680BD80B584B000AF0346FB71FB795C
:1063C0001846FFF7DDFE03469B0203F1804303F509
:1063D0008433FB60FB68DB6883F40052FB68DA609F
:1063E00000BF1037BD4680BD80B500AF104B5B6964
:1063F00003F01003002B18D00D4B5B690C4A43F0DF
:10640000100353610B4B1B78002B07D100212D206B
:10641000FFF796FF074B01221A7006E001212D209D
:10642000FFF78EFF034B00221A7000BF80BD00BF34
:10643000000401403804002080B485B000AF03465A
:10644000FB71FB795B09FB73FB7903F01F03BB73E3
:10645000BB7B012202FA03F1044AFB7B42F82310C2
:1064600000BF1437BD4680BC704700BF00E100E0AC
:1064700080B400AF084B41F63F725A60064B0022D1
:106480009A60054B1B68044A43F00703136000BF82
:10649000BD4680BC704700BF10E000E080B400AF94
:1064A0000A4B1B8801339AB2084B1A80084B1B8891
:1064B00001339AB2064B1A80064B1B8801339AB2FD
:1064C000044B1A8000BFBD4680BC70473A040020D0
:1064D0003C0400203E04002080B483B000AF78600C
:1064E0007B680E4A1A607B6800225A717B68002222
:1064F0001A717B684FF416529A607B680022DA604A
:106500007B68074A5A617B68064A9A617B68082261
:106510005A7700BF0C37BD4680BC7047004400402E
:10652000400400209004002080B582B000AF786065
:106530007B681A687B685B791946104600F009F998
:106540007B681A687B681B791946104600F019F9B8
:106550007B681A687B68DB68DBB21946104600F07E
:1065600022F97B681A687B689B681946104600F020
:106570001FF87B681A687B681B7C1946104600F080
:1065800085FA7B681A687B685B7C1946104600F0C8
:106590007DFA7B681B68184600F0CCF87B681B68A6
:1065A000184600F054FA00BF0837BD4680BD000011
:1065B000B0B588B000AF786039600120FFF70EFDFC
:1065C00078617869FDF7D2FF04460D463868FDF71B
:1065D000CDFF4FF00002264BFEF742F802460B4675
:1065E00020462946FEF766F902460B461046194634
:1065F000FEF70EFB03463B613869FEF7DDFC034600
:106600001846FEF70FFC034619463869FEF754FB9F
:106610000346FB60F9683869FEF74EFB03461846EF
:10662000FEF7F0FC0346FB614FF08341F868FDF78D
:10663000A7FD0346184600F081FAB861BB690F2B2D
:1066400004D90023BB61FB690133FB617B689A6855
:10665000FB691B011A437B689A607B689A68BB6977
:106660001A437B689A6000BF2037BD46B0BD00BFAB
:106670000000304080B582B000AF78607B681B6856
:10668000184600F0D5F93DE000BF7B681B6880210B
:10669000184600F0A6F80346002BF6D07B681B795D
:1066A000012B20D17B68DB68002B10D17B685B69F4
:1066B0001A787B681B685A607B685B695A1C7B6828
:1066C0005A617B685B695A1C7B685A611AE07B6877
:1066D0005B691A787B681B685A607B685B695A1C27
:1066E0007B685A610EE07B681B79002B0AD17B68BE
:1066F0005B691A787B681B685A607B685B695A1C07
:106700007B685A617B685B691B78002BBCD100BF3A
:106710007B681B684021184600F063F80346012B94
:10672000F6D17B681B68184600F0A0F900BF083757
:10673000BD4680BD80B483B000AF78607B68DB6805
:1067400043F400527B68DA6000BF0C37BD4680BC62
:10675000704780B483B000AF78600B46FB707B68F5
:106760001B6923F440527B681A617B681A69FB78C5
:106770001B031A437B681A6100BF0C37BD4680BCFF
:10678000704780B483B000AF78600B46FB707B68C5
:10679000DA68FB781B031A437B68DA6000BF0C37AA
:1067A000BD4680BC704780B483B000AF78600B46B4
:1067B000FB70FB78012B06D17B68DB6843F48062B9
:1067C0007B68DA6008E0FB78022B05D17B68DB6828
:1067D00043F4C0627B68DA6000BF0C37BD4680BC02
:1067E000704780B483B000AF78600B46FB707B6865
:1067F0001A68FB781340002B01D0012300E000232E
:1068000018460C37BD4680BC7047000080B584B088
:1068100000AF78607B681B6840211846FFF7E1FFF6
:106820000346012B28D17B685A697C4B1B78591C85
:10683000C8B27A49087019461278794B5A547B6865
:106840005B691B78002B17D17B681B68DA687B6853
:106850001B6822F08002DA607B681B68DA687B685C
:106860001B6822F04002DA607B681B68DA687B688C
:106870001B6822F00802DA607B681B6880211846DA
:10688000FFF7AFFF0346012B58D1664B1B7801334E
:10689000DAB2644B1A707B685A69634B1B78591CD7
:1068A000C8B26149087019461278604B5A547B6827
:1068B0005B691B78002B39D07B681B79012B25D1B4
:1068C0007B68DB68002B15D17B685B69FB60FB682C
:1068D0001B881A467B681B68C2F308025A607B68F3
:1068E0005B695A1C7B685A617B685B695A1C7B68D0
:1068F0005A6123E07B685B691A787B681B685A6081
:106900007B685B695A1C7B685A6117E07B681B795E
:10691000002B13D17B685B691A787B681B685A600F
:106920007B685B695A1C7B685A6107E07B681B685F
:10693000DA687B681B6822F08002DA607B681B687B
:1069400020211846FFF74DFF0346012B61D17B68DC
:106950005B7F002B51D07B681B79012B25D17B6895
:10696000DB68002B14D17B681B685B689AB27B687C
:106970009B69C2F3080292B21A807B689B695A1C19
:106980007B689A617B689B695A1C7B689A6140E0CE
:106990007B681B685A687B689B69D2B21A707B68F7
:1069A0009B695A1C7B689A6133E07B681B79002BDA
:1069B0002FD17B68DB68002B12D17B681B685A687B
:1069C0007B689B69D2B21A707B689B695A1C7B6892
:1069D0009A617B685B7F013BDAB27B685A7718E08B
:1069E0007B681B685A687B689B69D2B21A707B68A7
:1069F0009B695A1C7B689A610BE07B685B7F002B6C
:106A000007D17B681B68DA687B681B6822F020026C
:106A1000DA6000BF1037BD4680BD00BF30050020E2
:106A2000E0040020A8050020840500203405002093
:106A300080B483B000AF78607B68DB6843F0080205
:106A40007B68DA6000BF0C37BD4680BC704780B4FD
:106A500083B000AF78607B68DB6843F004027B683A
:106A6000DA6000BF0C37BD4680BC704780B483B08D
:106A700000AF78607B68DB6823F008027B68DA602F
:106A800000BF0C37BD4680BC7047000080B483B0A7
:106A900000AF78600B46FB70FB78032B26D801A271
:106AA00052F823F0B56A0008C36A0008D16A0008EA
:106AB000DF6A00087B685B6943F080027B685A618B
:106AC00014E07B685B6923F080027B685A610DE00B
:106AD0007B685B6943F040027B685A6106E07B6833
:106AE0005B6923F040027B685A6100BF00BF0C372E
:106AF000BD4680BC704700BF80B500AF0248FFF7BD
:106B000085FE00BF80BD00BF8805002080B500AFB6
:106B1000FFF716F9FFF752FB0648FFF7DDFC0548C3
:106B2000FFF702FD0448FEF72DFCFFF7A1FC00BFB4
:106B300080BD00BF88050020D002002080B586B04F
:106B400000AF78607868FEF737FA03463B617868F3
:106B5000FEF732FA03461846FEF764F90346194673
:106B60007868FEF7A9F80346FB604FF07C51F8689F
:106B7000FEF7FAF90346002B02D00023FB7509E06B
:106B80004FF07C51F868FEF703FA0346002B01D062
:106B90000123FB75FA7D3B69134418461837BD463F
:106BA00080BD00000FB480B596B000AF07F164035C
:106BB0007B6007F108037A68396E184600F014FF0D
:106BC000064A07F1080353610448FFF753FD00BF6D
:106BD0005837BD46BDE8804004B0704788050020A6
:106BE00080B584B000AF78607B689B681946134815
:106BF000FFF7D8FF7B685B7919461148FFF7D2FF92
:106C00001048FFF7CFFF0023FB730AE0FB7B7A6895
:106C100013441B7B19460C48FFF7C4FFFB7B013371
:106C2000FB737B681B79FA7B9A42EFD30748FFF727
:106C3000B9FF00BF1037BD4680BD00BFB89B00083C
:106C4000C49B0008D49B0008DC9B0008E09B000864
:106C500080B586B002AF194BBB60FFF757FF184BEA
:106C60009B687B6079681748FFF79CFF1648FFF721
:106C700037F81649164800F03DFE2A2301930023F9
:106C800000930023082212491248FEF7EFFE00236A
:106C9000FB6002E0FB680133FB60FB680E4A934235
:106CA000F8D90E4B1B88B3F57A7FFAD30B4B002231
:106CB0001A802D20FFF77EFBF3E700BF0000C842DB
:106CC00000ED00E0E49B0008E16B0008F89B000881
:106CD00040040020006400409F8601003E04002024
:106CE00080B400AF01231846BD4680BC704780B514
:106CF00082B000AF7860396000F0D2FE0346162201
:106D00001A604FF0FF3318460837BD4680BD80B586
:106D100082B000AF78604FF0FF317868FFF7E7FF8F
:106D200000BFFDE780B586B000AFF860B9607A605B
:106D300000237B610AE0AFF300800146BB685A1C68
:106D4000BA60CAB21A707B6901337B617A697B6869
:106D50009A42F0DB7B6818461837BD4680BD80B587
:106D600086B000AFF860B9607A6000237B6109E00B
:106D7000BB685A1CBA601B781846AFF300807B6969
:106D800001337B617A697B689A42F1DB7B68184644
:106D90001837BD4680BD80B483B000AF78604FF037
:106DA000FF3318460C37BD4680BC704780B483B0B3
:106DB00000AF786039603B684FF400525A6000239E
:106DC00018460C37BD4680BC704780B483B000AF16
:106DD0007860012318460C37BD4680BC704780B4EC
:106DE00085B000AFF860B9607A60002318461437A8
:106DF000BD4680BC7047000080B586B000AF7860AB
:106E0000144A154BD31A7B617B693B61134B1B689A
:106E1000002B02D1114B124A1A60104B1A687B6882
:106E200013443A699A4207D200F03AFE03460C2214
:106E30001A604FF0FF3309E0084B1B68FB60074BFB
:106E40001A687B681344054A1360FB6818461837B4
:106E5000BD4680BD0050002000040000AC050020AD
:106E6000000700200D488546AFF300800C480D490F
:106E70000D4A002302E0D458C4500433C4188C4295
:106E8000F9D30A4A0A4C002301E013600432A242FB
:106E9000FBD300F00BFEFFF7DBFEFEE70050002007
:106EA000000000208C020020809F00088C0200203F
:106EB000FC060020FEE7002B2DE9F0471D46BBBF76
:106EC00003F100431D4600232D2388B01446B8BFAC
:106ED0001446129A109E1370149BDDF84CA023F0F8
:106EE0002008B8F1460F05D0B8F1450F00D10136A2
:106EF000022300E0032307AA049206AACDE902A216
:106F0000CDE9003622462B4600F08EFEB8F1470F41
:106F1000074619D1119BDB070ED500EB06090022AD
:106F2000002320462946FDF703FE08B1CDF81C904A
:106F30003022079B4B451ED33846079B159ADB1B17
:106F4000136008B0BDE8F087B8F1460F00EB060902
:106F5000E5D10378302B0AD10022002320462946B0
:106F6000FDF7E6FD18B9C6F10106CAF80060DAF8C7
:106F700000309944D3E7591C07911A70D9E7F7B547
:106F80000029B6BF2D232B234942092902704370E3
:106F900029DD0DF107031D460A27B1FBF7F61A4656
:106FA00007FB1614303402F8014C0C46632C3146B2
:106FB00003F1FF33F1DC3031941E03F8011C23464A
:106FC000411CAB420AD30DF109039B1AAC4288BFA6
:106FD000002302330344181A03B0F0BD13F8016B09
:106FE00001F8016FEDE7302330318370C170031D6C
:106FF000F1E700002DE9F04F91B00C46DDF8688014
:1070000016461F46054600F001FD03681846089322
:10701000FDF7AEF800230E93D8F80030099007333F
:1070200023F0070303F1080294F818A0D4F800B085
:10703000C8F80020D3E9008929F000430B93CDF86C
:1070400028804FF0FF32DDE90A01C4E912899C4B28
:10705000FDF7A0FD70BBDDE90A014FF0FF32984B50
:10706000FDF77AFD30BB0022002340464946FDF77C
:1070700069FD10B12D2384F84330924A924BBAF146
:10708000470F94BF9046984603234FF000092361B1
:107090002BF00403236033462146284600970FAAAD
:1070A00000F0D4F9013040F090804FF0FF3011B083
:1070B000BDE8F08F42464B4640464946FDF76AFD23
:1070C00048B14B46002BB8BF2D23804AB8BF84F887
:1070D00043307F4BD3E763680AF0DF015A1C3FD18E
:1070E0000623636000224BF48063236006920EAA9D
:1070F000CDE904A20DAA03920DF13302CDE90132CC
:1071000063684246009328464B460A91FFF7D3FE38
:107110000A99804647290D9928D1C81C02DB63686B
:10712000994240DDAAF1020A5FFA8AFA5246013911
:1071300004F150000D91FFF722FF0E9A81461318BB
:10714000012A236102DC2268D20701D501332361C1
:107150009DF83330002B9ED02D2384F843309AE7DE
:107160004729BFD1002BBDD10123BAE7BAF1650F82
:10717000DCD9BAF1660F18D1002963680BDD2161F3
:1071800013B92268D00702D501330B4423614FF0B5
:107190000009A165DCE713B92268D20701D50233E3
:1071A000F4E70123F2E74FF0670A0E9B994205DBF3
:1071B00023682161D807EAD54B1CE7E70029CCBF3B
:1071C0000122C1F102021344E0E723685A0507D403
:1071D0002369424631462846B84701302BD164E73F
:1071E000BAF1650F40F2DC80D4E9120100220023DD
:1071F000FDF79EFC002833D0012331462846354A4E
:10720000B84701303FF451AFDDE90D38434502DBAB
:107210002368D8070FD5DDE9082331462846B8474B
:1072200001303FF442AF4FF0000908F1FF3804F19C
:107230001A0AC84509DC23689B0700F10281E0684F
:107240000F9B9842B8BF184631E70123524631469A
:107250002846B84701303FF428AF09F10109E8E7B3
:107260000D9B002B38DC012331462846194AB847CC
:1072700001303FF41AAFDDE90D3959EA030302D1B9
:107280002368D907D7D5DDE9082331462846B84712
:1072900001303FF40AAF4FF0000A04F11A0B0D9BC6
:1072A0005B42534501DC4B4693E701235A46314686
:1072B0002846B84701303FF4F8AE0AF1010AEEE77C
:1072C000FFFFEF7F019C0008059C0008099C000857
:1072D0000D9C0008119C0008A36DDDF838A05345F3
:1072E000A8BF5346002B994636DC4FF0000B29EA25
:1072F000E97904F11A02A36D0A93A3EB09035B4534
:1073000031DC0D9B9A453ADC2368DA0737D40D9BB4
:10731000AAEB03090A9BAAEB03039945A8BF994668
:10732000B9F1000F33DC4FF0000829EAE97904F1E4
:107330001A0B0D9BAAEB0303A3EB090343457FF74D
:107340007AAF01235A4631462846B84701303FF408
:10735000ACAE08F10108ECE7424631462846B84792
:107360000130C2D1A1E60123314628460A92B8472E
:1073700001303FF49AAE0A9A0BF1010BBBE731469C
:10738000DDE908232846B8470130C0D18DE60A9AC6
:107390004B46314628464244B8470130C3D184E6C3
:1073A000DDF838A0BAF1010F01DCDB0736D5012387
:1073B000424631462846B84701303FF476AEDDE913
:1073C000082331462846B84701303FF46EAED4E971
:1073D0001201002200230AF1FF3AFDF7A9FBC0B910
:1073E000534608F1010231462846B84701300CD116
:1073F0005BE601235A4631462846B84701303FF440
:1074000054AE08F10108D045F3DB4B4604F15002BD
:10741000E0E64FF0000804F11A0BF4E701234246BE
:10742000E1E701234A4631462846B84701303FF498
:107430003CAE08F10108E3680F995B1A4345F0DCA4
:10744000FDE64FF0000804F11909F4E72DE9F047D3
:10745000164698468A680B6907469342B8BF13469A
:10746000336091F843200C46DDF820900AB10133D7
:1074700033602368990642BF33680233336025685E
:1074800015F0060506D104F1190AE36832689B1A63
:10749000AB422BDC94F843302268003B18BF012339
:1074A000920630D44146384604F14302C8470130C1
:1074B00023D02368226903F00603042B14BF0025A0
:1074C00033684FF0000608BFE56804F11A0408BFEE
:1074D000ED1A54F8123C08BF25EAE5759342C4BF83
:1074E0009B1AED18B5421AD1002008E0012352463C
:1074F00041463846C847013003D14FF0FF30BDE860
:10750000F0870135C1E73020E11881F843005A1CAB
:1075100094F845102244023382F84310C2E7012355
:10752000224641463846C8470130E6D00136D9E701
:107530002DE9FF470F7E9146782F80460C469A46EC
:107540000C9E01F1430207D8622F0AD8002F00F0E9
:10755000D380582F00F0BA8004F1420684F84270BC
:107560003AE0A7F16303152BF6D801A151F823F0F7
:10757000C9750008DD7500085975000859750008BF
:107580005975000859750008DD750008597500081F
:10759000597500085975000859750008DF7600080C
:1075A0000776000899760008597500085975000893
:1075B000017700085975000807760008597500081A
:1075C00059750008A176000833681A1D1B683260DF
:1075D00004F1420684F8423001239EE033682068BB
:1075E000191D3160060601D51D6803E04506FBD56F
:1075F000B3F90050002D03DA2D236D4284F8433097
:107600000A23594811E021683368080653F8045BDF
:1076100002D4490648BFADB26F2F336014BF0A23AE
:1076200008235148002184F843106668002EA8BF43
:107630002168A660A4BF21F0040121600DB9002ECD
:107640004BD01646B5FBF3F103FB1157C75D06F8A7
:10765000017D2F46BB420D46F4D9082B0BD1236880
:10766000DF0708D5236961689942DEBF302306F839
:10767000013C06F1FF36921B22614B4621464046F3
:10768000CDF800A003AAFFF7E1FE01304AD14FF088
:10769000FF3004B0BDE8F087236843F02003236087
:1076A0007827324884F84570236831681F0651F8FE
:1076B000045B02D45F0648BFADB23160D90744BF56
:1076C00043F0200323601DB11023ABE72648E9E710
:1076D000236823F020032360F6E71646BDE73368EE
:1076E0002568181D616930602E061B6801D5196078
:1076F00002E06806FBD51980002316462361BCE72B
:10770000336800211A1D32601E686268304600F03E
:10771000F4F908B1801B606063682361002384F87A
:107720004330AAE73246494640462369D0470130F4
:10773000ADD023689B0713D4E068039B9842B8BF81
:107740001846A6E70123324649464046D047013055
:107750009DD00135E36803995B1AAB42F2DCEBE79D
:10776000002504F11906F5E7139C0008249C000885
:10777000002310B50446C0E90033C0E90433836038
:1077800081814366C2818361194608225C3000F022
:1077900035F90D4B246263620C4BA3620C4BE36220
:1077A0000C4B23630C4B9C4206D003F168029442BD
:1077B00002D0D0339C4205D104F15800BDE81040FE
:1077C00000F098B910BD00BF35790008577900085E
:1077D0008F790008B3790008B0050020024A0349F8
:1077E000034800F069B800BFC40000206594000899
:1077F000D400002041680C4B10B59942044601D0DA
:1078000001F030FEA168094B994202D0204601F0F8
:1078100029FEE168064B994204D02046BDE810409D
:1078200001F020BE10BD00BFB005002018060020EA
:107830008006002010B50B4B0B4C0C4A20461A60FA
:1078400004210022FFF794FF04F1680001220921BE
:10785000FFF78EFF04F1D0000222BDE81040122194
:10786000FFF786BFE8060020B0050020DD7700089E
:10787000014800F040B900BFF1060020014800F0C7
:107880003BB900BFF106002010B50446FFF7F0FF3A
:10789000236A1BB1BDE81040FFF7F0BF044B236221
:1078A000044B1B68002BF5D1FFF7C4FFF2E700BFC4
:1078B000F5770008E80600202DE9F84307468846DA
:1078C00014460026D4E90195B9F1010905D52468CB
:1078D000002CF7D13046BDE8F883AB89012B07D9DE
:1078E000B5F90E30013303D029463846C047064368
:1078F0006835E9E70EB46FF0004100B59CB01DABF0
:1079000002900690079104910848094953F8042B06
:107910000591006802A9019301F028FC0022029B56
:107920001A701CB05DF804EB03B07047D000002063
:107930000802FFFF10B50C46B1F90E1000F08CF8EC
:107940000028ABBF636DA3891B1823F48053ACBF21
:107950006365A38110BD2DE9F0411F468B89054663
:10796000DB050C46164605D502230022B1F90E10A0
:1079700000F060F8A389324623F48053A38128469F
:107980003B46B4F90E10BDE8F04100F077B810B5F1
:107990000C46B1F90E1000F04DF8431CA38915BF39
:1079A000606523F4805343F48053A38118BFA381FF
:1079B00010BDB1F90E1000F02DB8000000B59BB05D
:1079C000009104916FF000410591029105490391E6
:1079D000694601F0CBFB0022009B1A701BB05DF8DA
:1079E00004FB00BF0802FFFF13460A460146024897
:1079F0000068FFF7E3BF00BFD00000200346024449
:107A0000934200D1704703F8011BF9E70048704723
:107A10001002002038B50023054D044608462B60AF
:107A2000FFF7B9F9431C02D12B6803B1236038BDBD
:107A3000EC06002038B50446084611460022054DE4
:107A40002A601A46FFF7CBF9431C02D12B6803B119
:107A5000236038BDEC06002038B5044608461146C0
:107A60000022054D2A601A46FFF75CF9431C02D13B
:107A70002B6803B1236038BDEC06002038B50446FE
:107A8000084611460022054D2A601A46FFF767F99D
:107A9000431C02D12B6803B1236038BDEC060020E3
:107AA000014B1868704700BFD000002070B5002659
:107AB0000C4D0D4C641BA410A64209D102F06EF8C7
:107AC00000260A4D0A4C641BA410A64205D170BDC5
:107AD00055F8043B98470136EEE755F8043B9847C4
:107AE0000136F2E7789F0008789F0008789F000829
:107AF0007C9F0008704770477047034610B5C9B2B5
:107B000002449342184601D1002003E00478013377
:107B10008C42F6D110BD2DE9F74F03690C69074679
:107B2000A3427EDB013CA30000F1140501F114081F
:107B3000009305EB8403019358F8243055F8242072
:107B400001339A42B2FBF3F608EB84092ED34FF0CF
:107B5000000AC446AE46D3465CF8043B98B206FB26
:107B600000A01B0C020C06FB0323DEF8002080B2F1
:107B700092B2121A5A44DEF800004FEA134A9BB23E
:107B8000C3EB224303EB104392B242EA0342E145C6
:107B90004FEA234B4EF8042BDED2009BEB582BB957
:107BA000019B043B9D421A462FD33C61384601F0AD
:107BB00079F9002825DB2946002058F8042BD1F854
:107BC00000C01FFA82FE1FFA8CF3A3EB0E030344DE
:107BD000120CC2EB234202EB1C429BB243EA02436B
:107BE000C1454FEA224041F8043BE6D255F8242033
:107BF00005EB840322B9043B9D421A460BD33C613A
:107C00000136304603B0BDE8F08F1268043B002A0D
:107C1000CBD1013CC6E71268043B002AEFD1013CFE
:107C2000EAE70020EEE700002DE9F04F14461D467C
:107C3000C76997B08346CDE90245239E7FB91020DE
:107C400000F002FE0246CBF81C0020B9EF21A84B41
:107C5000A84801F067FCC0E901770760C760DBF85E
:107C60001C30196859B15A68012393404A608B60EF
:107C7000584600F0DFFE0022DBF81C301A602B1E95
:107C8000AFBF0023012223F000430393A8BF33605A
:107C9000DDF80C80984BB8BF326033EA080312D18C
:107CA00042F20F73229A1360C8F31303234300F0C8
:107CB0005085249BDFF844A2002B00F052850AF186
:107CC000030300F04CBDDDE90223CDE90C23DDE91F
:107CD0000C0100220023FCF72BFF074658B10123BB
:107CE000229A1360249B13B1854B249A1360DFF80A
:107CF00014A200F036BD14AB019315AB00935846A7
:107D0000DDE90C2301F07EF9C8F30A568146002E06
:107D100077D0DDE90C010D9BA6F2FF36C3F3130308
:107D200043F07F5343F44013129719460022764BD9
:107D3000FCF7DEFA68A3D3E90023FCF791FC68A303
:107D4000D3E90023FCF7D6FA044630460D46FCF78B
:107D50001DFC65A3D3E90023FCF782FC02460B4619
:107D600020462946FCF7C6FA04460D46FCF728FFD4
:107D700000220746002320462946FCF7E3FE40B1D7
:107D80003846FCF703FC22462B46FCF7D1FE00B92F
:107D9000013F162F53D8DDE90C015C4B03EBC70301
:107DA000D3E90023FCF7CEFE00284AD00023013F90
:107DB0000F93149B9B1B5A1E46BFC3F1010800235F
:107DC0004FF00008099248BF0993002F3BDB099B45
:107DD0000E973B44099300230A93209B092B66D8F6
:107DE000052BC4BF043B2093209BC8BF0024A3F1F4
:107DF0000203D8BF0124032B64D8DFE803F02B383B
:107E00003656DDE914631E4406F23243202BC1BF0F
:107E1000C3F1400308FA03F806F2124324FA03F30D
:107E2000D6BFC3F1200348EA030004FA03F0FCF7CD
:107E30009DFB0122A1F1F873013E129275E7012327
:107E4000B6E70F90B5E77B420A930023A8EB07083B
:107E50000E93C2E700230B93219B002B35DC0123FB
:107E60001A46CDE9073321920BE00123F3E7002303
:107E70000B93219BFB1808930133012B0793B8BF89
:107E8000012300210422DBF81C0002F114059D42AD
:107E90001FD94160584600F08DFD8246002839D137
:107EA000024640F2AF111A4BD2E60123E0E701246B
:107EB00000230B9420934FF0FF330022CDE90733CA
:107EC0001223D0E701230B93F5E7219BCDE907337C
:107ED000D7E701315200D8E761436F63A787D23FEC
:107EE000B3C8608B288AC63FFB799F501344D33FA9
:107EF000429C0008599C00080000F07F3E9C00084E
:107F0000129C0008119C00080000F83F509D0008DA
:107F1000B19C0008DBF81C301860079B0E2B00F2A8
:107F2000A480002C00F0A180002F33DD864B07F0E9
:107F30000F0203EBC203F805D3E90034CDE90434A2
:107F40004FEA271416D5DDE90C01804B0326D3E94F
:107F50000823FCF7AFFCCDE9020104F00F047B4DD0
:107F600054B9DDE90423DDE90201FCF7A3FCCDE906
:107F7000020128E00226F2E7E10708D5DDE9040165
:107F8000D5E90023FCF76CFBCDE904010136641050
:107F90000835E5E700F0D280DDE90C017C426A4B50
:107FA00004F00F0203EBC203D3E90023FCF758FBF4
:107FB00002260023CDE90201644D2411002C40F07B
:107FC000B280002BD3D1DDE902450F9B002B00F0DE
:107FD000B7800022204629465D4BFCF7B3FD002800
:107FE00000F0AE80079B002B00F0AA80089B002BBE
:107FF00037DD7B1E2046049300222946554BFCF7B3
:108000002FFBCDE90201089C01363046FCF7BEFA91
:10801000DDE90223FCF724FB00224F4BFCF76AF951
:108020000546A1F15076002C40F09A80DDE902016E
:1080300000224A4BFCF75CF902460B46CDE90223CD
:108040002A463346FCF79CFD002840F08E82DDE98D
:1080500002012A4606F10043FCF774FD002840F0B7
:108060002781DDE90C34CDE90234159B002BC0F2E9
:1080700063810E2F00F36081334B03EBC703D3E919
:108080000034CDE90434219B002B03DA079B002B3D
:1080900040F30081DDE902455646DDE90423204630
:1080A0002946FCF707FCFCF78BFD8046FCF76EFACF
:1080B000DDE90423FCF7D4FA02460B4620462946A4
:1080C000FCF716F908F13004079D06F8014BA6EB02
:1080D0000A04A54202460B4640F01681FCF70AF955
:1080E000DDE9042304460D46FCF74AFD002840F074
:1080F000F880DDE9042320462946FCF719FD18B174
:1081000018F0010F40F0ED804946584600F092FC0F
:1081100000233370229B01371F60249B002B00F04B
:1081200020831E601DE3E20705D5D5E90023FCF797
:1081300097FA01230136641008353FE7022642E72B
:10814000079C049761E700BF509D0008289D000828
:108150000000F03F0000244000001C4000001440DC
:10816000704B0B9903EBC40353E9022354440029D9
:1081700045D000206C49FCF79DFB33462A46FCF7AE
:10818000B7F85646CDE91001DDE90201FCF718FD0C
:108190000546FCF7FBF902460B46DDE90201FCF758
:1081A000A7F802460B463035CDE90223DDE910235E
:1081B00006F8015BFCF7C6FC002863D1DDE9022369
:1081C00000205A49FCF794F8DDE91023FCF7BAFCCB
:1081D000002840F08780A6423FF443AFDDE910015C
:1081E0000022534BFCF73CFA0022CDE91001DDE9F7
:1081F00002014F4BFCF734FACDE90201C4E73146E6
:108200002846FCF72DFA5646CDE910011394DDE916
:108210000201FCF7D5FC0546FCF7B8F902460B460F
:10822000DDE90201FCF764F802460B46303506F83A
:10823000015BA642CDE902234FF0000224D1DDE923
:108240001001394BFCF756F802460B46DDE90201F6
:10825000FCF796FC002845D1DDE9102300203249C7
:10826000FCF746F802460B46DDE90201FCF76AFC22
:1082700000283FF4F6AE139E731E139316F8013CCC
:10828000302BF8D0049F3FE7294BFCF7E9F9CDE903
:108290000201BCE70CD1DDE904010022254BFCF70B
:1082A000DFF9DDE90223FCF761FC002800F05B81C7
:1082B00000242546219B5646DB4304930027214694
:1082C000584600F0B7FB002DDCD02FB1AF4203D0F1
:1082D0003946584600F0AEFB2946584600F0AAFB46
:1082E000D0E7049733461E4613F8012D392A07D1EB
:1082F0009A45F8D1049A0132049230228AF800207B
:108300001A7801321A70BDE70022094BFCF7A8F970
:108310000022002304460D46FCF70AFC00283FF427
:10832000BCAEF1E6509D00080000E03F0000F03FC9
:1083300000002440000014400B9A002A00F0DB806B
:10834000209A012A00F3BF80129A002A00F0B78019
:1083500003F2334346460A9C099A01211A445846BF
:108360009844099200F01AFC05465EB1099B002B67
:1083700008DDB342A8BF3346099AA8EB0308F61AF2
:10838000D31A09930A9BF3B10B9B002B00F0B78023
:108390008CB129462246584600F0BEFC4A460146AA
:1083A0000546584600F010FC49460490584600F037
:1083B00041FB049B99460A9B1A1B04D04946584628
:1083C00000F0AAFC81460121584600F0E7FB0E9B15
:1083D0000446002B00F0C9811A460146584600F0B9
:1083E0009BFC209B0446012B00F38F80029B002BFB
:1083F00040F08780039BC3F31303002B40F083807E
:10840000039B23F000431B0D1B052BB1099B08F1B7
:1084100001080133099301230A930E9B002B00F0FE
:10842000AA81236904EB8303186900F06BFBC0F198
:108430002000099B184410F01F0071D0C0F12003E8
:10844000042B65DD099BC0F11C00034480440644F5
:108450000993B8F1000F05DD49464246584600F041
:10846000B5FC8146099B002B05DD21461A4658467E
:1084700000F0ACFC04460F9B002B53D0214648462D
:1084800000F010FD00284DDA7B1E494604930A22B5
:108490000023584600F0F0FA0B9B8146002B00F0B9
:1084A0006C81002329460A22584600F0E5FA089B11
:1084B0000546002B61DC209B022B3BDC5DE0149B1E
:1084C000C3F1360346E7079B5C1E0A9BA342BFBF6E
:1084D0000A9B0E9AE31AD218A8BF1C1B079BBEBFAB
:1084E0000A940E920024002BB5BFA8EB0306464663
:1084F0000023079B30E746460A9C0B9D35E70A9A06
:108500005CE7002388E7029B86E700230A9388E75D
:108510009FD0099A1C331A4498441E44099298E744
:108520000346F6E7079B0497002B20DC0893209B6B
:10853000022B1EDD089B002B7FF4BCAE21460522DA
:10854000584600F099FA01460446484600F0AAFC55
:1085500000287FF7AFAE3123564606F8013B049B57
:1085600001330493AAE6079C04972546F3E7079B8B
:1085700008930B9B002B00F00481002E05DD29469B
:108580003246584600F022FC05460A9B002B5AD082
:108590005846696800F00EFA064628B9024640F2CD
:1085A000EF21834BFFF754BB2A6905F10C0102321E
:1085B00092000C3000F0A8FF01223146584600F02E
:1085C00005FC2F4605460AF101030793089B534417
:1085D0000B93029B03F001030A93079B2146013B87
:1085E00048460293FFF797FA3946089000F13008A1
:1085F000484600F057FC2A4609902146584600F0AC
:108600006DFCC268064602BB0146484600F04AFCC3
:108610000246314658460C9200F00CFA209B0C9A08
:10862000079E43EA02010A9B194310D1B8F1390FA2
:1086300029D0099B002B02DD089B03F13108029B26
:1086400083F800803BE62846BBE70122E1E7099B6F
:10865000002B04DB20990B430A990B4320D1002AFD
:10866000EDDD49460122584600F0B0FB2146814627
:1086700000F018FC002803DCE1D118F0010FDED077
:10868000B8F1390FD8D13923029A137033461E46F8
:1086900016F8012C013B392A52D001321A700EE62D
:1086A000002A07DDB8F1390FEDD0029A08F1010375
:1086B000137004E6079B079A03F8018C0B9B934207
:1086C00028D0494600230A22584600F0D5F9AF4287
:1086D00081464FF000034FF00A023946584607D151
:1086E00000F0CAF907460546079B0133079374E774
:1086F00000F0C2F92946074600230A22584600F036
:10870000BBF90546F0E7089B0027002BCCBF1E46AF
:108710000126564449460122584600F057FB21469F
:10872000814600F0BFFB0028B0DC02D118F0010F39
:10873000ACD133461E4613F8012D302AFAD0BEE5DF
:108740009A45A4D1049B0133049331238AF8003065
:10875000B5E5249BDFF85CA01BB10AF10803249A5D
:108760001360504617B0BDE8F08F209B012B7FF7B8
:108770003DAE0E9B0A9301205BE6089B002B7FF722
:10878000D6AE564621464846FFF7C5F900F13008F7
:10879000089B06F8018BA6EB0A029342B3DD49461B
:1087A00000230A22584600F067F98146EAE700BF35
:1087B000B19C0008359C000838B50546002940D01A
:1087C00051F8043C0C1F002BB8BFE41800F0E6F889
:1087D0001C4A136833B9636014602846BDE838400A
:1087E00000F0E2B8A34208D9206821188B4201BFEB
:1087F00019685B6809182160EDE71A465B680BB1E0
:10880000A342FAD911685018A0420BD12068014444
:10881000501883421160E0D118685B68084410600A
:108820005360DAE702D90C232B60D6E720682118C1
:108830008B4201BF19685B6809182160636054604E
:10884000CBE738BDF8060020024B0146186800F05F
:1088500025B800BFD000002070B50F4E0C4631681F
:10886000054611B900F040FE30602146284600F070
:108870003BFE431C03D14FF0FF34204670BDC41CA7
:1088800024F00304A042F8D0211A284600F02CFE60
:108890000130F2D1EFE700BFF40600202DE9F843E4
:1088A000CD1C25F0030508350C2D38BF0C25002DF7
:1088B000064601DBA94204D90C2333600020BDE841
:1088C000F883DFF8D48000F069F8D8F800301C464F
:1088D00044BB29463046FFF7BFFF431C044658D12E
:1088E000D8F800402746002F43D1002C4BD02368F6
:1088F0003946304604EB030900F0F6FD814542D1CC
:10890000216830466D1A2946FFF7A6FF01303AD09C
:1089100023682B442360D8F800305A6862BBC8F83B
:1089200000700FE02268521B20D40B2A17D961195E
:10893000A342256018BF5960636808BFC8F80010DB
:1089400062514B60304600F02FF804F10B00231DFC
:1089500020F00700C21A1CBF1B1AA350AFE76268C1
:10896000A3420CBFC8F800205A60EBE723466468B6
:10897000AEE73C467F68B6E71A465B68A342FBD188
:1089800000235360DEE70C233046336000F00CF820
:1089900094E70560D6E700BFF80600200148FFF71E
:1089A000AAB800BFF00600200148FFF7A5B800BF35
:1089B000F006002070B5C66904460D4676B9102051
:1089C000FFF742FF0246E06120B96B21174B1848C0
:1089D00000F0A8FDC0E901660660C660E669F368BC
:1089E00083B1E369DB6853F82500B8B9012101FAC6
:1089F00005F6721D2046920000F0B2FD60B1C0E99C
:108A000001560EE021220421204600F0A9FDE36971
:108A1000F060DB68002BE4D1002070BD026843F8F1
:108A200025200023C0E90333F7E700BF429C00087C
:108A3000C29C000870B5C66905460C4676B9102080
:108A4000FFF702FF0246E86120B98F21084B094871
:108A500000F068FDC0E901660660C6603CB1EB69E4
:108A60006268DB6853F82210216043F8224070BD31
:108A7000429C0008C29C00082DE9F04107460C46C4
:108A80001E4600200D6901F1140CDCF800300130A5
:108A900099B202FB01611E0C0B0C02FB063389B27A
:108AA00001EB034185424FEA13464CF8041BECDC12
:108AB0000EB3A368AB4219DC616838460131FFF799
:108AC00079FF804628B90246BA210C4B0C4800F0C9
:108AD00029FD226904F10C01023292000C3000F0F1
:108AE00013FD21463846FFF7A5FF444604EB8503F6
:108AF00001355E6125612046BDE8F081B19C00082A
:108B0000C29C00080346B0F5803F3ABF0304102022
:108B10000020B3F1807F3CBF1B020830B3F1805FBF
:108B20003CBF1B010430B3F1804F3CBF9B000230BF
:108B3000002B05DB13F0804F00F1010008BF20205F
:108B400070470368024613F007000BD0D90721D401
:108B5000980749BF5B089B08012013605CBF022097
:108B60001360704799B209B910201B0CD9B209B92A
:108B700008301B0A190704BF1B090430990704BFFA
:108B80009B080230D90703D45B0800F1010003D031
:108B900013607047002070472020704710B50C46C6
:108BA0000121FFF707FF024628B940F24511044BA7
:108BB000044800F0B7FC01234461036110BD00BF0D
:108BC000B19C0008C29C00082DE9F04F14460A69C8
:108BD00023690F469A42A2BF23460C461F46D4F88B
:108BE00010A0D7F81090A36861680AEB0906B34299
:108BF00085B0B8BF0131FFF7DDFE30B902464FF452
:108C0000B171434B434800F08DFC00F114052B4635
:108C1000002205EB8608434521D307F1140104F136
:108C2000140202EB8A0201EB89030293131B153B2A
:108C300023F00303043304F11507BA4238BF0423B9
:108C40000193029B03918B420CD8002E03DD58F850
:108C5000043D002B5AD0066105B0BDE8F08F43F803
:108C6000042BD8E7B1F800A0BAF1000F23D0A94631
:108C70004FF0000C04F1140E5EF8047BD9F80030BC
:108C80001FFA87FB9BB20AFB0B336344D9F800C081
:108C90003F0C4FEA1C4C0AFB07C707EB13479BB27C
:108CA00043EA074372454FEA174C49F8043BE3D8BF
:108CB000019B45F803C0039B0431B3F80290B9F15E
:108CC000000F21D0AE464FF0000A2B6804F1140CBF
:108CD000BCF800B0BEF802709BB209FB0B7757449A
:108CE00043EA07434EF8043B5CF8043B4FEA134A5F
:108CF000BEF80030624509FB0A3303EB17434FEA25
:108D0000134AE5D8019FEB5104359AE7013E9CE7F1
:108D1000B19C0008C29C00082DE9F843154612F0EA
:108D2000030207460E4607D0254C013A002354F8AB
:108D30002220FFF7A1FE0646AD103DD0FC697CB9AC
:108D40001020FFF781FD0246F86128B940F2B31107
:108D50001C4B1D4800F0E6FBC0E901440460C46000
:108D6000D7F81C80D8F808404CB940F27121384639
:108D7000FFF714FF00230446C8F8080003604FF013
:108D80000009EB070AD5314622463846FFF71CFF9B
:108D9000804631463846FFF74DFE46466D100BD0F3
:108DA000206838B9224621463846FFF70DFF20607B
:108DB000C0F800900446E4E73046BDE8F88300BF01
:108DC0001C9D0008429C0008C29C00082DE9F04749
:108DD0000C46074691462369496803EB6218A3686D
:108DE0004FEA621A08F10106B3420BDB3846FFF77F
:108DF000E1FD054648B902464FF4EF71274B28487C
:108E000000F090FB01315B00EEE7002300F114015C
:108E100000F110021846534533DB20692AEAEA7A4A
:108E200004F1140319F01F0901EB8A0103EB800C14
:108E30002BD08A460022C9F1200E186800FA09F0EA
:108E400010434AF8040B53F8042B9C4522FA0EF207
:108E5000F3D8ACEB0403153B23F00303043304F114
:108E60001500844538BF0423CA500AB108F1020630
:108E7000013E384621462E61FFF7DCFD2846BDE85D
:108E8000F08742F8040F0133C5E7043953F8042B87
:108E90009C4541F8042FF9D8EAE700BFB19C0008CF
:108EA000C29C000803460A69006930B5801A0ED1D9
:108EB0001433143103EB820401EB820154F8045D96
:108EC00051F8042D954203D005D24FF0FF3030BD4C
:108ED000A342F3D3FBE70120F9E700002DE9F74FA8
:108EE00089460646114648461446FFF7DBFF051E35
:108EF00012D129463046FFF75DFD024628B940F2FF
:108F000037213E4B3E4800F00DFB0123C0E90435FC
:108F1000104603B0BDE8F08FBCBF4B46A1463046BB
:108F2000D9F80410BABF1C4601250025FFF742FD01
:108F3000024618B940F24521304BE3E700F1140B2B
:108F4000D9F8107009F11003C5604FF0000C09F159
:108F50001405D946266904F1140E05EB87080EEBBB
:108F600086060193019B5EF8040B53F804AF81B2AF
:108F700001931FFA8AF35B1A000C6344C0EB1A409A
:108F800000EB23409BB243EA004376454FEA204C76
:108F900049F8043BE6D8331B153B23F00303153493
:108FA0000433A64238BF04231D445B441E462C46AE
:108FB00044450ED308F10301491B21F00301033D91
:108FC000A84538BF00210B4453F8041D99B117611F
:108FD0009EE7E64654F8041B1FFA81FCF444080C93
:108FE000714400EB2C4089B241EA00414FEA204C29
:108FF00046F8041BDCE7013FE6E700BFB19C000830
:10900000C29C00082DE97343012190469946089EB1
:10901000FFF7D0FC044630B9024640F20F31234B33
:10902000234800F07FFAC9F30A55C9F313030DB1C1
:1090300043F480130193B8F1000324D068460093F1
:10904000FFF77FFDDDE90012D8B1C0F1200302FA7D
:1090500003F30B43C24063610192019B002B0CBFE1
:1090600001220222A3612261ADB1A5F2334505447C
:109070003560C0F13500099B1860204602B0BDE89C
:1090800070836161E9E701A8FFF75BFD019B0122A5
:1090900063612030E7E7A0F2324004EB82033060E6
:1090A0001869FFF72FFDC0EB4210E4E7B19C000800
:1090B000C29C00082DE9F0471F468E688246BE42DA
:1090C0000C4690460B682DD8B1F90C2012F4906F25
:1090D00026D06569096905EB4505A3EB010905EB98
:1090E000D5757B1C4B446D109D4238BF1D46530502
:1090F00027D52946FFF7D2FB064660B34A462169C9
:1091000000F002FAA38923F4906343F08003A38163
:1091100026614E4426603E466561A5EB0905A560C3
:10912000BE4200D93E4632464146206800F0C2F9B0
:109130000020A3689B1BA360236833442360BDE821
:10914000F0872A4600F032FA06460028E0D1504661
:109150002169FFF731FB0C23CAF80030A3894FF0D7
:10916000FF3043F04003A381E9E700002DE9F04F11
:1091700098468B8907461B060D4614469DB010D5B0
:109180000B6973B94021FFF789FB2860286130B96A
:109190000C233B604FF0FF301DB0BDE8F08F402343
:1091A0006B610023099320238DF8293030234FF081
:1091B0000109CDF80C80DFF898818DF82A3023461C
:1091C0009A4613F8012B0AB1252AF9D1BAEB040B00
:1091D0000BD05B46224629463846FFF76BFF01302D
:1091E00000F0A780099A5A4409929AF80030002B9F
:1091F00000F09F8000234FF0FF32CDE905230AF1F4
:10920000010A049307938DF853301A9354460522AC
:1092100014F8011B4E48FEF770FC049AD8B9D0062A
:1092200044BF20238DF85330110744BF2B238DF802
:1092300053309AF800302A2B15D0544600204FF0B6
:109240000A0C079A214611F8013B303B092B4BD9F8
:10925000B0B1079214E0A0EB080309FA03F313433B
:10926000A2460493D2E7039B191D1B680391002BB0
:10927000BBBF5B4242F0020207930793B8BF049260
:1092800023782E2B0AD163782A2B32D1039B023408
:109290001A1D1B68039243EAE3730593DFF8B4A039
:1092A000032250462178FEF728FC38B14022049B67
:1092B000A0EB0A00824013430134049314F8011B0D
:1092C000062225488DF82810FEF717FC002836D016
:1092D000224B1BBB039B073323F007030833039385
:1092E000099B334409936AE70C4601200CFB0232C8
:1092F000A8E700234FF00A0C1946013405932046D5
:1093000010F8012B303A092A03D9002BC6D0059159
:10931000C4E7044601230CFB0121F0E703AB0093F3
:109320002A4638460E4B04A9FDF764FE421C064649
:10933000D6D1AB895B063FF52DAF09982CE703AB7F
:1093400000932A463846064B04A9FEF7F1F8EDE7EC
:10935000189E00081E9E0008229E0008F56F000857
:10936000B5900008B1F90C20F8B5160705460C4673
:1093700054D44B68002B02DC0B6C002B48DDE66AF2
:10938000002E45D0002312F480522F68216A2B60F2
:1093900030D0626DA389590705D56368D21A636B13
:1093A0000BB1236CD21A00232846E66A216AB04723
:1093B000431CA38906D129681D292BD8284A0A41B4
:1093C000D60727D4002262602269D904226004D51E
:1093D000421C01D12B6803B96065616B2F60B9B184
:1093E00004F14403994202D02846FFF7E5F900232F
:1093F00063630DE001232846B0470246501CC9D1E3
:109400002B68002BC6D01D2B01D0162B1DD12F6031
:10941000002021E043F040031BB21AE00F69002F47
:10942000F6D0930718BF00230E6808BF4B69F61BE0
:109430000F608B60002EEBDD33463A462846216AEA
:10944000D4F828C0E047002807DCB4F90C3043F01A
:1094500040034FF0FF30A381F8BD0744361AE9E717
:10946000FEFFBFDF38B50B6905460C4613B9002572
:10947000284638BD18B1036A0BB9FEF705FAB4F9EE
:109480000C30002BF3D0626ED00704D4990502D4BF
:10949000A06DFEF730FB28462146FFF763FF636EA1
:1094A0000546DA07E4D4A3899B05E1D4A06DFEF755
:1094B00023FBDDE7884210B501EB020402D98442A8
:1094C000234607D8431EA14208D011F8012B03F808
:1094D000012FF8E7014602448A4200D110BD13F87B
:1094E000014D02F8014DF7E738B50023054D04465C
:1094F00008462B60FDF780FC431C02D12B6803B1AA
:10950000236038BDEC0600200A44914200F1FF338D
:1095100000D1704710B511F8014B914203F8014F8B
:10952000F9D110BD1FB514461A46094B05461B68F4
:10953000D86854B9074B1C46CDE9013400912B463D
:10954000054900F06FF800F07FF8044BF4E700BF26
:10955000D00000206E9E0008409E0008339E000848
:1095600070B5A1FB02543CB92946FFF797F90646AE
:1095700028B90026304670BD0C220260F9E72A4661
:109580002146FEF73BFAF5E782B001B901A942B1E5
:109590004BB113780B601278101E18BF012002B077
:1095A00070471046FBE76FF00100F8E72DE9F04146
:1095B000804615460C4621B91146BDE8F041FFF73B
:1095C0006DB92AB9FFF7F8F800242046BDE8F0810C
:1095D00000F041F88542064602D8B5EB500FF4D8AA
:1095E00029464046FFF75AF907460028ECD0B54215
:1095F0002A46214628BF3246FFF786FF21464046CD
:10960000FFF7DAF83C46E0E70346084641B1FF2A97
:1096100004D98A224FF0FF301A60704701200A7087
:10962000704700000EB403B5014603AB054853F87C
:10963000042B0068019300F03DF802B05DF804EBE4
:1096400003B07047D0000020062008B500F006FAED
:109650000120FDF75CFB51F8043C181F002BBCBF38
:109660000B58C0187047936810B4013B002B9360EF
:1096700007DA9469A34201DB0A2902D110BC00F089
:1096800031B91368581C10601970084610BC704737
:10969000F8B506460F461446D518AC4201D1002055
:1096A00007E03A46304614F8011BFFF7DCFF431C85
:1096B000F3D1F8BD2DE9F04F0D4614469846064605
:1096C0009DB018B1036A0BB9FEF7DEF86B6ED907CF
:1096D00005D4AB899A0502D4A86DFEF70CFAAB89C4
:1096E0001B0701D52B699BB92946304600F038F994
:1096F00070B16B6EDC0704D54FF0FF301DB0BDE8D4
:10970000F08FAB899805F7D4A86DFEF7F5F9F3E76C
:109710000023099320238DF8293030234FF00109CD
:10972000CDF80C80DFF8A8818DF82A3023469A46C0
:1097300013F8012B0AB1252AF9D1BAEB040B0BD08F
:109740005B46224629463046FFF7A2FF013000F073
:10975000A780099A5A4409929AF80030002B00F029
:109760009F8000234FF0FF32CDE905230AF1010A63
:10977000049307938DF853301A935446052214F836
:10978000011B5348FEF7B9F9049AD8B9D10644BF72
:1097900020238DF85330130744BF2B238DF853300B
:1097A0009AF800302A2B15D0544600204FF00A0CAE
:1097B000079A214611F8013B303B092B4BD9B0B138
:1097C000079214E0A0EB080309FA03F31343A2463F
:1097D0000493D2E7039B191D1B680391002BBBBFA9
:1097E0005B4242F0020207930793B8BF04922378CA
:1097F0002E2B0AD163782A2B32D1039B02341A1DF7
:109800001B68039243EAE3730593DFF8C8A00322C1
:1098100050462178FEF771F938B14022049BA0EB45
:109820000A00824013430134049314F8011B0622FA
:1098300029488DF82810FEF760F900283FD0274B03
:109840001BBB039B073323F0070308330393099BD8
:109850003B4409936AE70C4601200CFB0232A8E75F
:1098600000234FF00A0C194601340593204610F8E6
:10987000012B303A092A03D9002BC6D00591C4E741
:10988000044601230CFB0121F0E703AB00932A46B9
:109890003046134B04A9FDF7ADFB0746781CD6D123
:1098A0006B6ED90705D4AB899A0502D4A86DFEF773
:1098B00023F9AB895B063FF51FAF09981EE703ABA1
:1098C00000932A463046064B04A9FDF731FEE4E733
:1098D000189E00081E9E0008229E0008F56F0008D2
:1098E00091960008F8B50E461446054618B1036A6D
:1098F0000BB9FDF7C9FFA369A360A3891A0701D5B6
:10990000236943B92146284600F02AF818B14FF0E0
:10991000FF373846F8BD23682269F6B2981A6369A2
:109920003746834205DC21462846FFF79BFD002889
:10993000EDD1A368013BA36023685A1C22601E700E
:109940006269431C9A4204D0A389DB07E1D50A2E41
:10995000DFD121462846FFF785FD0028D9D0D6E77C
:1099600038B5294B054618680C4618B1036A0BB97F
:10997000FDF78AFFB4F90C30190722D4DA0607D4B0
:1099800009222A6043F040034FF0FF30A38133E007
:10999000580712D5616B41B104F14403994202D0DA
:1099A0002846FEF709FF00236363A38923F02403FD
:1099B000A3810023636023692360A38943F0080324
:1099C000A38123694BB9A38903F42073B3F5007F06
:1099D00003D02146284600F082F8B4F90C3013F089
:1099E00001020AD00022A26062695242A261226989
:1099F00042B913F08000C5D138BD990758BF6269DC
:109A0000A260F4E70020F7E7D00000201F2938B556
:109A100005460C4604D9162303604FF0FF3038BDCD
:109A2000C26B12B152F821304BB9284600F030F821
:109A3000224601462846BDE8384000F017B8012B01
:109A40000AD0591C03D1162303600120E7E7002147
:109A5000204642F8241098470020E0E7024B0146D8
:109A60001868FFF7D3BF00BFD000002038B500232F
:109A7000064D0446084611462B60FDF738F9431C95
:109A800002D12B6803B1236038BD00BFEC06002073
:109A9000FDF726B970B50C46B1F90E101546002930
:109AA0001E4696B00CDAA389002113F0800F14BF74
:109AB00040234FF48063002031602B6016B070BDEE
:109AC0006A4600F049F80028EDDB019901F4704185
:109AD000A1F50053594259414FF48063EBE78B895C
